:020000040800F2
:100000000004002001020008D1030008D103000809
:10001000D1030008D1030008D1030008D103000870
:10002000D1030008D1030008D1030008F103000840
:10003000D1030008D1030008D1030008D10400084F
:10004000D1030008D1030008D1030008D103000840
:10005000D1030008D1030008D1030008D103000830
:10006000D1030008D1030008D1030008910F000854
:10007000C10F0008F10F00082110000851100008FE
:1000800081100008B110000841160008D1030008D3
:10009000D1030008D1030008D1030008D1030008F0
:1000A000D1030008D1030008D1030008D1030008E0
:1000B000D1030008D103000891170008D1030008FC
:1000C000D1030008D1030008D1030008D1030008C0
:1000D000D1030008D103000851180008D10300081B
:1000E000D1030008D1030008D1030008D1030008A0
:1000F000D1030008D1030008D1030008E110000873
:10010000D1030008D1030008D1030008D10300087F
:10011000D1030008D1030008D1030008D10300086F
:10012000111100084111000871110008A111000807
:10013000D1110008D1030008D1030008D103000841
:10014000D1030008D1030008D1030008D10300083F
:10015000011200083112000861120008D1030008E2
:10016000D1030008D1030008D1030008D10300081F
:10017000D1030008D1030008D1030008D10300080F
:08018000D1030008D1030008BF
:1001900070B500F005FE00F00BFA4FF44060C4F2B9
:1001A00002004FF40041012201F032FD4FF440649F
:1001B000C4F202044FF4004648F2000525834FF4D0
:1001C000FA7000F0E5FB66834FF4FA7000F0E0FB94
:1001D000F4E700BFAFF30080AFF30080AFF300801F
:1001E000704700BFAFF30080AFF30080AFF3008033
:1001F000FEE700BFAFF30080AFF30080AFF30080F5
:1002000072B6644C84F30988022383F31488BFF325
:100210006F8F61486149884218D2CA1C051D531B63
:1002200023F00302034610184FF055318342196042
:10023000C2F380020AD01AB185422B46296005D04C
:100240001D1D5960083383426960F9D15448A042AA
:1002500018D25449041D0A1B22F00305034628182E
:100260004FF0553183421960C5F380020AD01AB1AC
:1002700084422346216005D01D1D59600833834206
:100280006960F9D101F02CFD4749484881421BD2F1
:10029000C61C0C1D321B464822F00302161D0568C1
:1002A0000423B3420D60C2F380020DD022B1456831
:1002B0000823B342256007D01A1D1D5884585D508D
:1002C0000833B3428C50F7D13A483B49884217D2A1
:1002D000CB1C041D1A1B22F003050346281800211D
:1002E00083421960C5F380020AD01AB184422346C2
:1002F000216005D01D1D5960083383426960F9D122
:10030000FFF76EFF2D4D2E498D421DD2CC1C2E1DA8
:10031000A71BB808471C01242A6800EA0408904774
:10032000BC4211D0B8F1000F05D0022433689847C1
:10033000BC42354608D0696888470234A8682E1D3B
:1003400080470835BC42F6D1FFF722FF1D4D1E4AFB
:1003500095421DD2D41C2E1DA71BBB085F1C012477
:10036000296803EA04088847BC4211D0B8F1000F9D
:1003700005D0022430688047BC42354608D06A6800
:1003800090470234AB682E1D98470835BC42F6D121
:10039000FFF72EFF000800200000002000040020CE
:1003A00000040020030800200008002000080020AE
:1003B000201F0008000800206C0B002088010008A6
:1003C000880100088801000888010008AFF3008058
:1003D000FEE700BFAFF30080AFF30080AFF3008013
:1003E00000F03EFA00DF00BFAFF30080AFF3008003
:1003F000EFF30983203383F30988002383F3118803
:10040000704700BFAFF30080AFF30080AFF3008010
:1004100008B54FF46D43CEF200030022C0F2FA5249
:100420000021996007201021DA6000F099F80A2075
:100430004FF4007100F094F80B208021BDE80840D3
:1004400000F08EB8AFF30080AFF30080AFF3008010
:10045000202383F311884FF46D43CEF200035868D4
:1004600010F4006319D0EFF30983A3F1200282F3A3
:100470000988124A91694FF0807043F8040C79B1F1
:100480001168D06989688268914294BF0022012274
:1004900082B10B4843F8080C704783F3118870470A
:1004A0001168D26988689268904234BF00220122A4
:1004B000002AEED1034A43F8082C7047180900209F
:1004C000E1030008E4030008AFF30080AFF300800D
:1004D00008B5202383F3118800F0A2F8002383F3EA
:1004E0001188BDE80840FFF7B3BF00BFAFF300803D
:1004F0002DE9F04FC1F80CD0D0F80CD0BDE8F08F4A
:10050000002383F311882846A04700F071FA704752
:10051000F0B44FF461438408CEF20003C03400F01D
:10052000030553F82470ED00FF26420906FA05F68C
:1005300027EA060601FA05F500F01F0002F1600740
:10054000012101FA00F02E4343F8246043F827000C
:1005500043F82200F0BC7047AFF30080AFF3008097
:1005600082084FF46D43CEF20003063200F0030020
:1005700030B4C00053F82250FF2404FA00F425EAF6
:10058000040401FA00F10C4343F8224030BC7047E8
:10059000024B034AD8698261FEE700BF18090020B8
:1005A000001D0008AFF30080AFF30080AFF30080C0
:1005B00000B583B0FFF72CFF00F0CAF800F058F840
:1005C00000F0A6FB00F0DCFB40F600004021C2F288
:1005D000000000F065F940F61811C2F20001012296
:1005E000C8610277002383F3118862B641F6105088
:1005F000C969C0F600008861009340F6480040F2E7
:100600009153C021C0F60003C2F2000000F0A8F927
:1006100003B000BDAFF30080AFF30080AFF3008004
:1006200038B5104B9A69002A01DD501E9861DA69CD
:100630000D4C116A2368481C1062E268511CA342E9
:10064000E1600ED09D68013D9D6055B91A68D9687A
:100650001869DD6054602260884723689868002824
:10066000F4D038BD1809002008090020AFF300803D
:1006700040F60813C2F200034FF0FF3200205B6027
:100680001B609A60D8607047AFF30080AFF30080C2
:1006900070B40C4E03613468C260A568A94204D9E5
:1006A0002468491BA5688D42FAD363680460B4428C
:1006B000436018606060816002D0A068411AA16048
:1006C00070BC704708090020AFF30080AFF30080D2
:1006D0000368074A934203D0996882688918996031
:1006E00042681360036800215A60C160704700BF10
:1006F00008090020AFF30080AFF30080AFF3008063
:10070000037F0D2B11D8DFE803F020101007100B2A
:10071000101010101010100B416A8A68531C8B6067
:1007200090E80C001A6001684B604FF0FF324262A3
:100730008168064B002202771B689A688A42FBD2C6
:1007400059680360416008605860704718090020CC
:1007500040F61813C2F20003002214205B601B60F5
:100760009A6098615B611B61704700BFAFF30080C6
:1007700000228168054B02771B689A688A42FBD287
:10078000596803604160086058607047180900208C
:1007900040F61813C2F2000330B41A68D96914681D
:1007A0000877142098610125104663601C60DA61A7
:1007B000157730BCFFF79CBEAFF30080AFF300802D
:1007C00030B54B1C87B0054611D00B4C0B4AE36982
:1007D00001A8FFF75DFF2846FFF7DAFF049B13B17E
:1007E00001A8FFF775FFE069406A07B030BDFFF769
:1007F000CFFF014CF7E700BF1809002001070008F0
:10080000F0B4154F8568FE690446B0686162002344
:1008100085420CD823773946096888688542FBD918
:100820004B68216063601C604C60F0BC704733779C
:10083000394609688A689042FBD94868316070601F
:1008400006604E600123142220463146FC61BA61E5
:100850002377F0BCFFF74CBE18090020AFF30080EF
:100860000E4A1068D16930B405688C68156014238D
:1008700093616A60D06101220277002203460A7701
:1008800000E01B689A68A242FBD25A680B604A607B
:100890001160596030BCFFF72BBE00BF1809002063
:1008A000F0B440F61814C2F2000400226569016435
:1008B00000F12C06816000F128074FF0020C0121A5
:1008C0000461456180F81CC060614277C263826345
:1008D000026281778261286187620663C662F0BC2A
:1008E000704700BFAFF30080AFF30080AFF300802C
:1008F0002DE9F00340F61815C2F20005A1F1240C11
:1009000000EB0C076969C76040F80C30069B7B6000
:1009100040F20153C0F600033B62022300269046DA
:1009200000F1280900F12C02037701230561C0F8CA
:1009300008804161044668614677C0F84080C6631C
:1009400086630662837786610861C0F82890026337
:10095000C262BDE8F0037047AFF30080AFF30080E0
:1009600010B51C4682B0202383F311882346049CD3
:100970000094FFF7BDFF00210446FFF741FF00236D
:1009800083F31188204602B010BD00BFAFF3008092
:1009900008B50146202383F311880620FFF710FFD6
:1009A000002383F3118808BDAFF30080AFF300800C
:1009B00038B50E4BDC692546606255F8280FA84211
:1009C00006D00168A162FFF7D3FEA06AA842F8D161
:1009D000607F830704D1636922691A6121694B61D1
:1009E0000E20BDE83840FFF7D3BE00BF1809002035
:1009F000202383F31188FFF7DBBF00BFAFF3008034
:100A00000023406000608360704700BFAFF3008048
:100A100008B5826B037F1143082B81630BD0092B30
:100A200000D008BD426A11408A42FAD1FFF7A0FE09
:100A30000021416208BD436A1942F7D108BD00BFD9
:100A400070B50468A04205460E4607D0A1686068EC
:100A50003143FFF7DDFF2468A542F7D170BD00BF29
:100A600010B4024659B1084BDB69586244680D2046
:100A700083E814005360236010BCFFF7A1BE4FF061
:100A8000FF3010BC704700BF18090020AFF3008092
:100A900010B48A1800244060006084604161816164
:100AA000C1600261C36110BC704700BFAFF300803A
:100AB000426908B5034680698242986818D00130BF
:100AC000986002F8011B19695A618A4228BFDA68E6
:100AD000186828BF5A61984208D002681A605360AB
:100AE000FFF746FE00234362184608BD002008BDFC
:100AF0000028E4D06FF0030008BD00BFAFF3008012
:100B000070B5202304460E4683F31188C36903B1F0
:100B10009847A568204631463DB9FFF7A1FF002858
:100B2000F7DA2B4683F3118870BDA1692269013D74
:100B3000A56011F8010B9142A16124BFE168A16198
:100B4000002383F3118870BDAFF30080AFF3008002
:100B50002DE9F0471E460446C769202383F3118818
:100B60004FF0000801F1010901EB020A0FB1204624
:100B7000B847A568204631464DB9FFF771FF0028F8
:100B8000F7D02B4683F311884046BDE8F087A36970
:100B9000013DA56013F8012B09F8012C2069A36120
:100BA000834224BFE368A361002383F31188D14506
:100BB00008F10108E8D0202383F3118809F1010925
:100BC000D4E700BFAFF30080AFF30080AFF3008045
:100BD00010B48C1840600060826041618161C16026
:100BE0000461C36110BC7047AFF30080AFF30080B5
:100BF000F8B504460F461646202383F31188A568EE
:100C0000204631463DB9FFF72BFF0028F7DA2B4687
:100C100083F31188F8BD6369013DA56003F8017B8A
:100C200022696361934228BFE368E16928BF636179
:100C300009B120468847002383F311881846F8BD80
:100C4000826941699142034610B5806816D0441C00
:100C50009C6012F8014B19699A618A4228BFDA68D0
:100C6000186828BF9A61984206D002681A605360DB
:100C7000FFF77EFD00234362204610BD0028E6D02A
:100C80006FF0020010BD00BFAFF30080AFF3008033
:100C90002DE9F0479A46044688461646D0F81C903F
:100CA000202383F311880027A56820466B1EEDB131
:100CB000A360656918F8011B05F8011B22696561CD
:100CC000954224BFE2686261B9F1000F00D0C847C5
:100CD000002383F311880137013E10D0202383F3D2
:100CE0001188A56820466B1E002DE1D12046514693
:100CF000FFF7B6FE0028D7D02B4683F3118838467D
:100D0000BDE8F087AFF30080AFF30080AFF3008061
:100D100040F63C1240F638134CF200010648C2F28D
:100D20000002C2F20003C2F2010120F0070021F02C
:100D30000701106019607047730B0020AFF300804B
:100D4000202383F31188094B09491A680968073081
:100D500020F00700891A88429ABF101818600022F4
:100D6000002383F311881046704700BF3C09002020
:100D700038090020AFF30080AFF30080AFF30080AC
:100D800040F64013C2F2000340F641510022C0F683
:100D9000000103F1100019609A60DA60FFF730BEBD
:100DA00008B500F015FB41F62060C0F6000000F029
:100DB00057FE00F00DF800F023F800F081F800F085
:100DC000D7F8BDE8084000F093BF00BFAFF3008044
:100DD00000F0D6BBAFF30080AFF30080AFF300802C
:100DE00000230122027043608360C360036143619A
:100DF0001830FFF705BE00BFAFF30080AFF30080EF
:100E000000F006BDAFF30080AFF30080AFF30080C9
:100E10000123002103704160704700BFAFF30080E1
:100E2000806BD0F1010038BF00207047AFF3008025
:100E30008069D0F1010038BF00207047AFF3008017
:100E40000246202383F3118800238068936083F394
:100E500011887047AFF30080AFF30080AFF30080DC
:100E60001030FFF775BE00BFAFF30080AFF3008016
:100E700010304FF0FF33FFF76BBE00BFAFF30080C1
:100E80003030FFF705BF00BFAFF30080AFF3008045
:100E900030304FF0FF33FFF7FBBE00BFAFF30080F1
:100EA0001030FFF72DBE00BFAFF30080AFF300801E
:100EB0003030FFF79DBE00BFAFF30080AFF300807E
:100EC00000F076BDAFF30080AFF30080AFF3008099
:100ED00070B541F630530546C0F60003044645F8A8
:100EE000043B65600025A56001250B46164604F10C
:100EF0005001102200F110002573FFF7C9FD04F125
:100F0000300004F1600110223346BDE87040FFF765
:100F10005FBE00BFAFF30080AFF30080AFF300808F
:100F200038B50D468169044639B104F110002946EF
:100F3000FFF7BEFD00280EDB38BD826842F00400DA
:100F4000A060201DFFF77CFD04F110002946FFF78B
:100F5000AFFD0028F0DAA36843F08001A160201DF6
:100F60000021BDE83840FFF76BBD00BFAFF3008044
:100F700000F036BDAFF30080AFF30080AFF3008028
:100F8000002301220270436083600C30FFF738BDFC
:100F90004FF4C043C4F2020307481968026810B551
:100FA0003D2401F03D019C600AB140689047BDE8D6
:100FB0001040FFF74DBA00BF60090020AFF300807A
:100FC0004FF4C043C4F2020308481968826810B5A0
:100FD0008C0904F03D014FF474649C600AB1C06850
:100FE0009047BDE81040FFF733BA00BF600900200A
:100FF0004FF4C043C4F2020308481968026910B5EF
:101000000C0C04F03D014FF474149C600AB140696B
:101010009047BDE81040FFF71BBA00BF60090020F1
:101020004FF4C043C4F2020308481968826910B53E
:101030008C0D04F03D014FF074649C600AB1C069EE
:101040009047BDE81040FFF703BA00BF60090020D9
:101050004FF4C043C4F2020307485968026A10B54E
:101060003D2401F03D01DC600AB1406A9047BDE8D3
:101070001040FFF7EDB900BF60090020AFF300801A
:101080004FF4C043C4F2020308485968826A10B59D
:101090008C0904F03D014FF47464DC600AB1C06A4D
:1010A0009047BDE81040FFF7D3B900BF60090020AA
:1010B0004FF4C043C4F2020308485968026B10B5EC
:1010C0000C0C04F03D014FF47414DC600AB1406B69
:1010D0009047BDE81040FFF7BBB900BF6009002092
:1010E0004FF4C043C4F2020308485968826B10B53C
:1010F0008C0D04F03D014FF07464DC600AB1C06BEC
:101100009047BDE81040FFF7A3B900BF6009002079
:101110004FF4C843C4F2020307481968026C10B5C3
:101120003D2401F03D019C600AB1406C9047BDE850
:101130001040FFF78DB900BF60090020AFF30080B9
:101140004FF4C843C4F2020308481968826C10B512
:101150008C0904F03D014FF474649C600AB1C06CCA
:101160009047BDE81040FFF773B900BF6009002049
:101170004FF4C843C4F2020308481968026D10B561
:101180000C0C04F03D014FF474149C600AB1406DE6
:101190009047BDE81040FFF75BB900BF6009002031
:1011A0004FF4C843C4F2020308481968826D10B5B1
:1011B0008C0D04F03D014FF074649C600AB1C06D69
:1011C0009047BDE81040FFF743B900BF6009002019
:1011D0004FF4C843C4F2020307485968026E10B5C1
:1011E0003D2401F03D01DC600AB1406E9047BDE84E
:1011F0001040FFF72DB900BF60090020AFF3008059
:101200004FF4C843C4F2020308485968826E10B50F
:101210008C0904F03D014FF47464DC600AB1C06EC7
:101220009047BDE81040FFF713B900BF60090020E8
:101230004FF4C843C4F2020308485968026F10B55E
:101240000C0C04F03D014FF47414DC600AB1406FE3
:101250009047BDE81040FFF7FBB800BF60090020D1
:101260004FF4C843C4F2020308485968826F10B5AE
:101270008C0D04F03D014FF07464DC600AB1C06F66
:101280009047BDE81040FFF7E3B800BF60090020B9
:101290002DE9F00F40F6E0158AB0C2F2000546F2E3
:1012A00040400295783046F21045C4F20205A0F5A0
:1012B00080600495C4F2020046F240450390C4F2F7
:1012C000020546F228400695C4F2020046F2704537
:1012D0000590C4F2020546F258400195C4F202009E
:1012E00046F2B8450790C4F2020546F288400995D7
:1012F000C4F20200029D089046F2100B002040F656
:10130000601346F2280A46F2400946F2580846F2AF
:10131000700C46F2880746F2A006C2F2000328606D
:10132000C4F2020B039DCBF80000C4F2020AC4F21F
:101330000209C4F20208C4F2020CC4F20207C4F2A9
:1013400002061860CAF800009860C9F80000186129
:10135000C8F800009861CCF8000018623860986204
:10136000306018632860049D98632860059D1864A8
:101370002860069D98642860079D186546F2104411
:1013800028606034019D986530342860C4F20204FE
:10139000089D18664FF4C0414FF4C8422860C4F25B
:1013A00002019866C4F202022060099C18674FF09F
:1013B000FF35206098678D60CD609560D5600AB07C
:1013C000BDE8F00F704700BFAFF30080AFF30080BF
:1013D0004FF46053C4F202030022196941F0010086
:1013E00030B418611A615C6944F001055D615A61AD
:1013F000996941F0010098619A611C6A1C621A6245
:101400005D6A4EF21001CEF2000149F23F04C0F2D3
:1014100002044EF6F05045F001055D62CEF2000088
:101420005A624C6007248A600C60C4684FF4805193
:10143000CEF2000144F08074C460086840F00100FE
:101440000860186C4FF4E041C4F2000140F0805095
:101450001864086840F480700860196F01F44070E7
:10146000B0F5007F03D04FF4803119671A674FF44D
:101470006053C4F202031A6F120407D4186F40F4C9
:10148000007119671A6F42F40040186730BCFFF70B
:10149000FFBE00BFAFF30080AFF30080AFF300806A
:1014A0004FF46052C4F202024FF4E043C4F200036E
:1014B0004FF0805111644FF4804218461A6043681F
:1014C0005904FCD54FF46050C4F202000146026892
:1014D00042F00103036008684FF460538207C4F2CE
:1014E0000203F8D5196841F480321A601946086879
:1014F0004FF460538003C4F20203F8D55A6F42F0F0
:10150000010159671846426F4FF460539207C4F2C5
:101510000203F8D545F20841C0F2407159601868DD
:1015200040F080721A60194608684FF460538001D9
:10153000C4F20203F8D598684FF414424FF4705186
:10154000C3F60802C4F20201104340F2057298602B
:101550000A60996841F002009860996801F00C00F7
:101560004FF460520828C4F20202F6D1536C43F4DF
:1015700080415164506E40F480435366704700BF11
:10158000F8B540F6E416C2F20006304640F61825DB
:10159000FFF726FCC2F200051A4F4FF4005242F644
:1015A0001643C4F20102C0F20203284640F64C245E
:1015B000C2F20004B262F7623363FFF711FC4FF42A
:1015C000045242F61643A7F11801C4F20102C0F218
:1015D00002232046AA62E9622B63FFF701FC4FF465
:1015E000085242F61643C4F20102243FC0F20243FD
:1015F00012205021A262E7622363BDE8F840FEF7A3
:1016000087BF00BFF01D0008AFF30080AFF300807C
:10161000C16A0A68136810B423F0010414601368E7
:1016200013F00103FBD10C7A826A49683D2000FA6D
:1016300004F00860536093600123936010BC70470E
:101640004FF40053C4F2010300211A6810B5196069
:10165000930605D54B4CE06A03685A68002A64D1AA
:101660004FF40450C4F201000023026803609006A6
:1016700005D5454CE16A08684268002A32D14FF42A
:101680000850C4F20100002302680360910625D5CA
:101690003E4CE16A0868426802B32369F3B1204610
:1016A000FFF7B6FF2169CB683BB10520207001210F
:1016B000204698472278052A5AD00022226120230A
:1016C00083F31188606930B14FF0FF332F494362D3
:1016D0004A61FFF74DF8002383F31188BDE81040FD
:1016E000FEF7B6BE2369002BC9D02046FFF790FF56
:1016F0002169CB683BB10520207001212046984725
:101700002278052A3AD000222261202383F311880F
:10171000606930B14FF0FF331B4943624A61FFF704
:1017200027F8002383F31188A9E72169002997D0BE
:101730002046FFF76DFF2069C3683BB105220121F8
:101740002270204698472178052914D00022226172
:10175000202383F31188606930B14FF0FF330949CA
:1017600043624A61FFF704F8002383F3118877E7A7
:1017700002212170A1E702202070E7E702212170F9
:10178000C1E700BFE4090020180A00204C0A00202D
:1017900038B51C4D2B691A8A9C89A4B2144004F0F8
:1017A00002004FF6E07182B21982002A24D104F0BF
:1017B000040081B2D9B904F0080081B291B904F0F3
:1017C000100081B249B9E30703D569680D488B68F9
:1017D0009847BDE83840FEF73BBE6B6809489A6AF7
:1017E0009047F0E76B6807481A6A9047E7E76B682D
:1017F00004489A699047DEE76B6828461A69904763
:10180000D5E700BF800A0020AFF30080AFF300806F
:1018100010B540F68024C2F200042046FFF7F8FA23
:101820004FF40063C4F20003236110BDAFF30080E6
:101830004FF48843C4F200039A8990B240F08001CB
:1018400099817047AFF30080AFF30080AFF3008061
:101850002DE9F041524E356FAF892C88A988A4B28A
:101860002207BFB21FFA81F853D104F4807083B20B
:10187000002B39D104F0200188B2002828D107F0CC
:10188000800293B223B104F0800188B2002865D1B0
:1018900004F04004A4B2BCB1202383F31188B368E0
:1018A000404843F010020021B260FFF7C9F800235E
:1018B00083F311884FF6BF713940A981288820F041
:1018C00040031A04110C2980BDE8F041FEF7C0BDA9
:1018D000202383F3118832485FFA88F1FFF720FB59
:1018E000002383F31188CAE7202383F31188B268A9
:1018F0002C4842F400730021B360FFF7A1F80023E5
:1019000083F31188298821F480700204130C2B8042
:10191000B0E704F0080290B2002814BF8022002231
:10192000E30704F0020399B248BF42F0200209B174
:1019300042F0400204F0040083B20BB142F4807222
:10194000202383F31188B16816480A430021B2604E
:10195000FFF776F8002383F3118886E7202383F3CB
:101960001188DFF83C8008F13000FFF769F90028A2
:1019700005DB82B2AA80002383F3118888E7D8F8B8
:10198000083008F1040043F008020021C8F80820DC
:10199000FFF756F827F0C00141F04000A881EAE7C0
:1019A000940A0020980A0020AFF30080AFF3008073
:1019B00010B540F69424C2F2000441F631022046EC
:1019C0000021C0F60002FFF783FA4FF48843C4F207
:1019D0000003236710BD00BFAFF30080AFF30080AA
:1019E000F8B540F6083340F60C35C2F20005C2F2F5
:1019F0000003194E4FF6FF72284640F63C34C2F2FF
:101A000000041A80FFF7BCFA4FF440511622462317
:101A1000C4F20101C0F20162C0F2016306F12407C1
:101A20002046E9612E62AA62EB626F62FFF7A8FAB4
:101A30004FF4605116224623A6F13C00C4F2000187
:101A4000303EC0F20102C0F20103E1612062666231
:101A5000A262E362F8BD00BFC01D0008AFF30080C2
:101A60004FF46053C4F202031A6B6FEA52216FEA1B
:101A700041221A63196D6FEA51226FEA42211965FA
:101A800000230169C4F202034FF4806259610168C6
:101A900019604168596081689960C168D96041697D
:101AA000196281695962C16AC4F202024FF400638B
:101AB0005161C1691160016A5160416A9160816A36
:101AC000D160016B1162416B5162C4F20203826CFE
:101AD0005A61816B1960C26B5A60016C9960426CEB
:101AE000DA60C16C1962016D4FF440625962416E57
:101AF000C4F202024FF480535161416D1160816D57
:101B00005160C16D9160016ED160816E1162C16ED4
:101B10005162C4F20203D0F880205A61016F19604B
:101B2000426F5A60816F9960C26FDA60D0F884109A
:101B30001962D0F888104FF4A0525962D0F89C1066
:101B4000C4F202024FF4C0535161D0F88C101160FE
:101B5000D0F890105160D0F894109160D0F898109F
:101B6000D160D0F8A0101162D0F8A4105162D0F862
:101B7000B810C4F202034FF4E0525961D0F8A81033
:101B80001960D0F8AC105960D0F8B0109960D0F856
:101B9000B410D960D0F8BC101962D0F8C010C4F2EB
:101BA00002025962D0F8D4305361D0F8C4101160E9
:101BB000D0F8C8305360D0F8CC109160D0F8D03055
:101BC000D360D0F8D8101162D0F8DC104FF4005375
:101BD0005162D0F8F020C4F202035A61D0F8E0104C
:101BE0001960D0F8E4205A60D0F8E8109960D0F875
:101BF000EC20DA60D0F8F4101962D0F8F8005862DE
:101C0000704700BFAFF30080AFF30080AFF30080F8
:101C10002DE9F00F002302F00307C2F38006C2F3A0
:101C2000C105C2F341144FF00F09C2F3C3124FF0C4
:101C3000010A38E0D0F820B02BEA0C0C4CEA080876
:101C4000C0F82080D0F804B00AFA03FC2BEA0C0894
:101C500048EA060BC0F804B04FEA430C4FF0030B00
:101C6000D0F808800BFA0CFC6FEA0C0C0CEA0808A0
:101C700048EA0508C0F80880D0F80C800CEA08088B
:101C800048EA0408C0F80C80D0F800800CEA080C80
:101C90004CEA070CC0F800C049081AD07600AD0025
:101CA000A400BF00013303F0070C4FEA8C0C11F0C5
:101CB000010F02FA0CF809FA0CFCEDD0072BB9D988
:101CC000D0F824B02BEA0C0C4CEA0808C0F82480A9
:101CD000B8E7BDE8F00F7047AFF30080AFF30080C6
:101CE000FFF7DEBBAFF30080AFF30080AFF30080FF
:101CF000704700BFAFF30080AFF30080AFF3008008
:101D000069646C6500000000000000000000000035
:101D10006D61696E00160311040448080C10141854
:101D2000001C1D1E0020000000000000000000003C
:101D3000910E0008710E0008210E0008310E0008F7
:101D4000B10E0008A10E0008810E0008610E000807
:101D5000410E00080000000000000000000000002C
:101D6000106002400860024000000B002860024042
:101D70000860024006010C0040600240086002401A
:101D800010020D00586002400860024016030E0069
:101D9000706002400C60024000040F008860024046
:101DA0000C60024006051000A06002400C6002407A
:101DB00010061100B86002400C60024016072F00A8
:101DC00010640240086402400008380028640240A1
:101DD0000864024006093900406402400864024079
:101DE000100A3A005864024008640240160B3B0097
:101DF000706402400C640240000C3C0088640240A5
:101E00000C640240060D4400A06402400C640240D1
:101E1000100E4500B86402400C640240160F4600E4
:101E200000AAA02A00000000FFFFFFFF5400016489
:101E3000FFFFFFFF0000565500AA0A00802008009F
:101E400040020000FFFFFFFF15455155FFFFFFFF58
:101E5000000000044000000001802002000000009B
:101E6000FFFFFFFF54154554FFFFFFFF0000006018
:101E7000000606000001005500000000FFFFFFFF04
:101E800055505500CF0F000000000000000000007A
:101E90004000000000000000FFFFFFFF10555555F7
:101EA000FFFFFFFF00000000000000000000000036
:101EB00000000000FFFFFFFF55555555FFFFFFFFD6
:101EC0000000000000000000000000000000000012
:101ED000FFFFFFFF55555555FFFFFFFF00000000B6
:101EE000000000000000000000000000FFFFFFFFF6
:101EF00050555555FFFFFFFF000000000000000097
:101F00000000000000000000FFFFFFFF5555555581
:0C1F1000FFFFFFFF0000000000000000C9
:04000005080001905E
:00000001FF
