:020000040800F2
:100000000004002011020008E1030008E1030008D9
:10001000E1030008E1030008E1030008E103000830
:10002000E1030008E1030008E103000801040008FF
:10003000E1030008E1030008E1030008D10400081F
:10004000E1030008E1030008E1030008E103000800
:10005000E1030008E1030008E1030008E1030008F0
:10006000E1030008E1030008E1030008C11D0008E6
:10007000F11D0008211E0008511E0008811E000805
:10008000B11E0008E11E0008E1030008E1030008BA
:10009000E1030008E1030008E1030008E1030008B0
:1000A000E1030008E1030008E1030008E1030008A0
:1000B000E1030008E1030008A1230008E1030008B0
:1000C000E1030008E1030008E1030008E103000880
:1000D000E1030008E1030008B1320008E103000871
:1000E000E1030008E1030008E1030008E103000860
:1000F000E1030008E1030008E1030008111F000804
:10010000E1030008E1030008E1030008E10300083F
:10011000E1030008E1030008E1030008E10300082F
:10012000411F0008711F0008A11F0008D11F00080F
:1001300001200008E1030008E1030008E1030008D2
:10014000E1030008E1030008E1030008212C000896
:10015000312000086120000891200008E103000818
:10016000E1030008E1030008E1030008E1030008DF
:10017000E1030008E1030008E1030008E1030008CF
:08018000E1030008E10300089F
:1001900038B5002401F06CF8104D00F009FA03F0B6
:1001A00007FE44B1227F0E2A13D04FF4FA7000F0FC
:1001B0003FFC002CF6D1D5F8543218680178042998
:1001C000F0D107484FF40B61402203F0D1F9044607
:1001D000EBE7204600F064FC0024E6E7E00C00209A
:1001E000E0480008AFF30080AFF30080AFF3008079
:1001F000704700BFAFF30080AFF30080AFF3008023
:10020000FEE700BFAFF30080AFF30080AFF30080E4
:1002100072B6644C84F30988022383F31488BFF315
:100220006F8F61486149884218D2CA1C051D531B53
:1002300023F00302034610184FF055318342196032
:10024000C2F380020AD01AB185422B46296005D03C
:100250001D1D5960083383426960F9D15448A0429A
:1002600018D25449041D0A1B22F00305034628181E
:100270004FF0553183421960C5F380020AD01AB19C
:1002800084422346216005D01D1D596008338342F6
:100290006960F9D103F0BCF84749484881421BD254
:1002A000C61C0C1D321B464822F00302161D0568B1
:1002B0000423B3420D60C2F380020DD022B1456821
:1002C0000823B342256007D01A1D1D5884585D507D
:1002D0000833B3428C50F7D13A483B49884217D291
:1002E000CB1C041D1A1B22F003050346281800210D
:1002F00083421960C5F380020AD01AB184422346B2
:10030000216005D01D1D5960083383426960F9D111
:10031000FFF76EFF2D4D2E498D421DD2CC1C2E1D98
:10032000A71BB808471C01242A6800EA0408904764
:10033000BC4211D0B8F1000F05D0022433689847B1
:10034000BC42354608D0696888470234A8682E1D2B
:1003500080470835BC42F6D1FFF71AFF1D4D1E4AF3
:1003600095421DD2D41C2E1DA71BBB085F1C012467
:10037000296803EA04088847BC4211D0B8F1000F8D
:1003800005D0022430688047BC42354608D06A68F0
:1003900090470234AB682E1D98470835BC42F6D111
:1003A000FFF72EFF000800200000002000040020BE
:1003B000000400200308002000080020240800207A
:1003C000F849000828080020380F0020880100089C
:1003D000880100088801000888010008AFF3008048
:1003E000FEE700BFAFF30080AFF30080AFF3008003
:1003F00000F096FA00DF00BFAFF30080AFF300809B
:10040000EFF30983203383F30988002383F31188F2
:10041000704700BFAFF30080AFF30080AFF3008000
:1004200008B54FF46D43CEF200034FF44072C0F2B2
:10043000FA520021996007201021DA6000F090F84C
:100440000A204FF4007100F08BF80B208021BDE8EA
:10045000084000F085B800BFAFF30080AFF3008024
:10046000202383F311884FF46D43CEF200035868C4
:1004700010F4006319D0EFF30983A3F1200282F393
:10048000098810494FF080708A6943F8040CD07FC6
:1004900009689268896858B1914294BF002201228C
:1004A00062B1094A43F8082C704783F311887047FA
:1004B000914234BF00220122002AF2D1034843F8BE
:1004C000080C704740090020F1030008F4030008FD
:1004D00008B5202383F3118800F0A2F8002383F3EA
:1004E0001188BDE80840FFF7BBBF00BFAFF3008035
:1004F0002DE9F04FC1F80CD0D0F80CD0BDE8F08F4A
:10050000002383F311882846A04700F0C1FA704702
:10051000F0B44FF461438408CEF20003C03400F01D
:10052000030553F82470ED00FF26420906FA05F68C
:1005300027EA060601FA05F500F01F0002F1600740
:10054000012101FA00F02E4343F8246043F827000C
:1005500043F82200F0BC7047AFF30080AFF3008097
:1005600082084FF46D43CEF20003063200F0030020
:1005700030B4C00053F82250FF2404FA00F425EAF6
:10058000040401FA00F10C4343F8224030BC7047E8
:10059000024B034A98698261FEE700BF40090020D0
:1005A00020400008AFF30080AFF30080AFF300807D
:1005B00000B583B0FFF734FF00F0DAF800F060F820
:1005C00000F03EFD00F084FD40F628004021C2F21C
:1005D000000000F0B5F940F64011C2F2000101221E
:1005E00088610277002383F3118862B644F23000F9
:1005F0008969C0F600008861009340F6700040F2FF
:100600009153C021C0F60003C2F2000000F0F8F9D7
:1006100003B000BDAFF30080AFF30080AFF3008004
:1006200038B5134B9869C27F0AB1511EC177036A6E
:10063000104C5A1C0262E0682268411CA242E16030
:1006400014D09568013D956085B91368D1685C60E8
:100650002360D560002383F3118810698847202325
:1006600083F31188226890680028EED038BD00BF5F
:100670004009002030090020AFF30080AFF3008074
:1006800040F63013C2F200034FF0FF3200205B60EF
:100690001B609A60D8607047AFF30080AFF30080B2
:1006A00070B40C4E03613468C260A568A94204D9D5
:1006B0002468491BA5688D42FAD363680460B4427C
:1006C000436018606060816002D0A068411AA16038
:1006D00070BC704730090020AFF30080AFF300809A
:1006E0000368074A934203D0996882688918996021
:1006F00042681360036800215A60C160704700BF00
:1007000030090020AFF30080AFF30080AFF300802A
:10071000202383F31188037F0D2B11D8DFE803F02A
:1007200020101007100B101010101010100B416A41
:100730008A68531C8B6090E80C001A6001684B605B
:100740004FF0FF3242628168074B002202771B683C
:100750009A688A42FBD25968036041600860586019
:10076000002383F31188704740090020AFF3008015
:1007700040F64013C2F2000300225B601B609A60E7
:100780005B611B61704700BFAFF30080AFF3008077
:1007900000228168054B02771B689A688A42FBD267
:1007A0005968036041600860586070474009002044
:1007B00040F64013C2F2000310B499691A68087732
:1007C00014201468C87701201077104663601C60FD
:1007D0009A6110BCFFF78CBEAFF30080AFF30080CE
:1007E00030B54B1C87B0054611D00B4C0B4AA369A2
:1007F00001A8FFF755FF2846FFF7DAFF049B13B166
:1008000001A8FFF76DFFA069406A07B030BDFFF790
:10081000CFFF014CF7E700BF400900201107000897
:10082000F0B4144F8568BE690446B0686162002365
:1008300085420CD82377394609688A689542FBD9E6
:1008400048682160606004604C60F0BC704733779A
:10085000394609688A689042FBD9486831607060FF
:1008600006604E600123204631462377BC61F0BC10
:10087000FFF73EBE40090020AFF30080AFF30080D9
:100880000E4B18689969026830B453601A608C681E
:1008900098610125142300220577CB770A77034658
:1008A00000E01B689A68A242FBD25A680B604A605B
:1008B0001160596030BCFFF71BBE00BF400900202B
:1008C0000D4B18689969026830B453608C681A60DF
:1008D00001259861002305770B77034600E01B682C
:1008E0009A68A242FBD85A680B604A60116059604E
:1008F00030BCFFF7FDBD00BF40090020AFF3008012
:10090000044B1A68986991688368994200D87047C7
:10091000FFF7D6BF40090020AFF30080AFF300809F
:10092000034B9869C17F09B1FFF7CABFFFF7A8BFA2
:1009300040090020AFF30080AFF30080AFF30080E8
:10094000F0B440F64014C2F200040022656901646C
:10095000046100F12C06816000F1280745614FF029
:10096000020C60610121142480F81CC04277C47716
:10097000C263826302628177826128618762066353
:10098000C662F0BC704700BFAFF30080AFF30080D9
:100990002DE9F00340F64015C2F20005A1F1240C48
:1009A00000EB0C076969C76040F80C30069B7B6060
:1009B00040F20153C0F600033B6202230377142385
:1009C0000026904600F1280900F12C02C37701238C
:1009D0000561C0F808804161044668614677C0F847
:1009E0004080C66386630662837786610861C0F8CB
:1009F00028900263C262BDE8F0037047AFF3008045
:100A000010B51C4682B0202383F311882346049C32
:100A10000094FFF7BDFF00210446FFF701FF00230C
:100A200083F31188204602B010BD00BFAFF30080F1
:100A300008B50146202383F311880620FFF7D0FE76
:100A4000002383F3118808BDAFF30080AFF300806B
:100A500038B50E4B9C692546606255F8280FA842B0
:100A600006D00168A162FFF793FEA06AA842F8D100
:100A7000607F830704D1636922691A6121694B6130
:100A80000E20BDE83840FFF793BE00BF40090020AC
:100A9000202383F31188FFF7DBBF00BFAFF3008093
:100AA0000146202383F31188827F531EDAB28277B6
:100AB000002383F3118812B9037F0E2B00D07047F7
:100AC000427F02F00303012B09D0022BF7D14369C7
:100AD0000269406C1A610A69536100F0B9BB43694D
:100AE00002691A6101694B6100F04ABBAFF30080F3
:100AF000F0B583B00D4617461E4600F0F9FA0446DD
:100B000090B1202383F31188089C334629463A4646
:100B10000094FFF73DFF0123437700210446FFF7D0
:100B20007FFE002383F31188204603B0F0BD00BF91
:100B3000202383F3118840F64012C2F20002002302
:100B40001069817F4A1C827783F31188704700BF48
:100B500010B5202383F31188074B04699C4209D008
:100B6000A17F4A1CA277002383F31188FFF798FF27
:100B7000204610BD0024F6E740090020AFF30080B6
:100B80000023406000608360704700BFAFF30080C7
:100B9000F8B52F4A836894690546002B51D0A168A7
:100BA0009868814206D91A7F9960042A31D0052AB3
:100BB0001CD092B128460068854203D08368A168A2
:100BC0008B42F8D242682060626044600420146066
:100BD0006562BDE8F840FFF7EBBD93E806001160E1
:100BE000196818464A60FFF7D3FDE3E758681F68A5
:100BF0005E6A07601F68324678601268964202D0CB
:100C000090688842F9D251681A6059600B6053604D
:100C1000D0E758681F685E6A07601F6832467860D0
:100C20001268964212D090688842F9D251681A60D0
:100C300059600B605360B368A1689A688A42B2D366
:100C4000B8E7E36B8460C360E063F8BD3246EDE76C
:100C500040090020AFF30080AFF30080AFF30080C5
:100C600008B5202383F31188FFF792FF002383F355
:100C7000118808BDAFF30080AFF30080AFF30080B0
:100C8000154A38B59069202383F31188C46B256811
:100C9000E368A542C3631CD0016C4BB11A689A4249
:100CA00003D09268914238BF1146DB68002BF5D122
:100CB0002B68EA6B8160236028465C600021A56098
:100CC000E260EC63FFF7ACFD002383F3118820465C
:100CD00038BD0023A360F7E740090020AFF3008090
:100CE00008B5826B037F1143082B81630BD0092B5E
:100CF00000D008BD426A11408A42FAD1FFF748FD90
:100D00000021416208BD436A1942F7D108BD00BF06
:100D100070B50468A04205460E4608D0201D0BC8D9
:100D20003343E360FFF7DCFF2468A542F6D170BDD2
:100D300010B4024659B1084B9B69586244680D20B3
:100D400083E814005360236010BCFFF749BD4FF0E7
:100D5000FF3010BC704700BF40090020AFF3008097
:100D600010B4C361019B40608A1800240060846055
:100D700041618161C1600261036210BC704700BFC4
:100D800038B50446C368006863610021A042A361CE
:100D9000A1600AD06FF00105026822605460FFF77D
:100DA000F7FC45622068A042F6D138BDAFF3008061
:100DB000426908B503468069824298681AD00130BA
:100DC000986002F8011B19695A618A420BD21868AF
:100DD00098420DD0016819604B60FFF7D9FC0023E1
:100DE0004362184608BD1868DA6898425A61F1D122
:100DF000002008BD0028E2D06FF0030008BD00BF4E
:100E000070B5202304460E4683F31188C36903B1ED
:100E10009847A568204631463DB9FFF789FF00286D
:100E2000F7DA2B4683F3118870BDA1692269013D71
:100E3000A56011F8010B9142A16124BFE168A16195
:100E4000002383F3118870BDAFF30080AFF30080FF
:100E50002DE9F0471E460446C769202383F3118815
:100E60004FF0000801F1010901EB020A0FB1204621
:100E7000B847A568204631464DB9FFF759FF00280D
:100E8000F7D02B4683F311884046BDE8F087A3696D
:100E9000013DA56013F8012B09F8012C2069A3611D
:100EA000834224BFE368A361002383F31188D14503
:100EB00008F10108E8D0202383F3118809F1010922
:100EC000D4E700BFAFF30080AFF30080AFF3008042
:100ED00010B4C361019B40608C1800608260416166
:100EE0008161C1600461036210BC7047AFF3008090
:100EF00038B50269C368044600686361D11AA0422C
:100F0000A361A1600AD06FF00105036823605C60F3
:100F1000FFF73EFC45622068A042F6D138BD00BF15
:100F2000F8B504460F461646202383F31188A568BA
:100F3000204631463DB9FFF7FBFE0028F7DA2B4685
:100F400083F31188F8BD6369013DA56003F8017B57
:100F500022696361934228BFE368E16928BF636146
:100F600009B120468847002383F311881846F8BD4D
:100F7000826941699142034610B5806816D0441CCD
:100F80009C6012F8014B19699A618A420BD2186869
:100F9000984206D0016819604B60FFF7F9FB002307
:100FA0004362204610BDDA689A61F0E70028E6D077
:100FB0006FF0020010BD00BFAFF30080AFF3008000
:100FC0002DE9F0479A46044688461646D0F81C900C
:100FD000202383F311880027A56820466B1EEDB1FE
:100FE000A360656918F8011B05F8011B226965619A
:100FF000954224BFE2686261B9F1000F00D0C84792
:10100000002383F311880137013E10D0202383F39E
:101010001188A56820466B1E002DE1D1204651465F
:10102000FFF786FE0028D7D02B4683F31188384679
:10103000BDE8F087AFF30080AFF30080AFF300802E
:1010400040F6601240F65C134CF200010648C2F212
:101050000002C2F20003C2F2010120F0070021F0F9
:1010600007011060196070473F0F0020AFF3008048
:10107000202383F31188094B09491A68096807304E
:1010800020F00700891A88429ABF101818600022C1
:10109000002383F311881046704700BF60090020C9
:1010A0005C090020AFF30080AFF30080AFF3008055
:1010B00040F65C1240F66013C2F20002C2F2000376
:1010C00010681968401A7047AFF30080AFF30080D2
:1010D00040F66813C2F2000341F271010022C0F62B
:1010E000000103F1100019609A60DA60FFF748BD53
:1010F000F8B5204E002818BF0646073106F110004B
:1011000021F0070506F10804FFF7AAFD00E01C46E0
:101110002368FBB15A689542F9D805F1080191425C
:1011200015D84FF6F870CFF6FF70401B03EB010E99
:1011300082181868CEF8042058505D60C4F800E0AA
:101140001C4644F8086BFFF79BFD2046F8BD196864
:101150002160F5E7FFF794FD32684AB105F1080018
:10116000904728B100F10804066045602046F8BDAC
:101170000024EAE768090020AFF30080AFF30080A5
:1011800070B50646A0F1080450F8080C00F10805F7
:101190001030FFF765FD2B46AB421A6801D0A34221
:1011A00002D21AB1944201D31346F5E756F8041C53
:1011B00046F8082C1C6001F1080256F8085CA018DB
:1011C000A84209D05A6802F1080019188C4211D0BF
:1011D000BDE87040FFF754BD4068A25809180831B7
:1011E00046F8041C46F8082C5A6802F10800191841
:1011F0008C42EDD156F8040C56F8081C121808322F
:1012000083E80600E4E700BFAFF30080AFF300809F
:1012100038B50E4C002818BF044604F110000D46E6
:10122000FFF71EFDA3686BB10022144658681B68C7
:1012300012180134002BF9D105B12A60FFF720FD07
:10124000204638BD1A461C46F6E700BF6809002054
:10125000202383F31188026800230A60016083F36E
:1012600011887047AFF30080AFF30080AFF30080C8
:1012700008B500F0C5FF44F2D010C0F6000001F040
:10128000DFF800F025F800F073F800F081FA00F0C4
:101290008FFA00F065F9BDE8084002F0C1B800BF60
:1012A0004FF48053CEF2000319465A6880188242E8
:1012B0004B6802D29A4202D970479A42F7D99842B3
:1012C00094BF00230123002BF1D17047AFF30080BE
:1012D00001F0A6B8AFF30080AFF30080AFF3008059
:1012E0000123002103704160704700BFAFF300800D
:1012F0000C30FFF7ADBD00BFAFF30080AFF300804F
:101300000C304FF0FF33FFF7A3BD00BFAFF30080F9
:101310003030FFF755BE00BFAFF30080AFF3008061
:1013200030304FF0FF33FFF74BBE00BFAFF300800C
:101330000C30FFF765BD00BFAFF30080AFF3008056
:101340000C304FF0FF31FFF75BBD00BFAFF3008003
:101350003030FFF7E5BD00BFAFF30080AFF3008092
:1013600030304FF0FF32FFF7DBBD00BFAFF300803E
:1013700002F036B8AFF30080AFF30080AFF3008027
:1013800070B544F250030546C0F60003044645F824
:10139000043B82B0656001250B46164604F15401FA
:1013A0001022257200F10C000094FFF7D9FC009484
:1013B00004F1300004F1640110223346FFF788FD88
:1013C00002B070BDAFF30080AFF30080AFF30080D8
:1013D00038B5436904460D463BB104F10C0029467B
:1013E000FFF7E6FC00280BDB38BD04300421FFF7D3
:1013F0008FFC04F10C002946FFF7DAFC0028F3DA31
:10140000201D8021BDE83840FFF782BCAFF300808B
:1014100038B5046AD4F8542213681978042900D026
:1014200038BD207A0228FBD15279598903EB820317
:1014300041FA02F0DA6810F00103518AF0D1E5694F
:10144000A0696269281A801A8142E9D883F3118859
:10145000D4F85422B0FBF1F301FB03F31068517987
:1014600004F10C0200F014FA202383F31188D4F85D
:10147000543218685979BDE8384000F029BA00BFE5
:1014800010B5046AD4F854321A681178042900D0CF
:1014900010BD207A0228FBD11B79128942FA03F190
:1014A00011F00103F4D1206CE16BA26B401A821A97
:1014B000EED083F31188D4F85412134608680979E2
:1014C00004F1300200F0F4F9202383F31188D4F8FA
:1014D000543218681979BDE8104000F011BA00BF05
:1014E0000C30FFF7B5BC00BFAFF30080AFF3008056
:1014F0000C304FF0FF33FFF7ABBC00BFAFF3008001
:101500003030FFF75DBD00BFAFF30080AFF3008068
:1015100030304FF0FF33FFF753BD00BFAFF3008013
:101520000C30FFF76DBC00BFAFF30080AFF300805D
:101530000C304FF0FF31FFF763BC00BFAFF300800A
:101540003030FFF7EDBC00BFAFF30080AFF3008099
:1015500030304FF0FF32FFF7E3BC00BFAFF3008045
:10156000704700BFAFF30080AFF30080AFF300809F
:1015700030B544F270030546C0F60003044645F852
:10158000043B83B0656041F21143012504F154012D
:10159000257200F10C004FF48072C0F60003009435
:1015A000FFF7DEFB41F28143009404F1300004F5C3
:1015B000AA714FF48072C0F60003FFF789FC03B0F4
:1015C00030BD00BFAFF30080AFF30080AFF3008009
:1015D00010B40A68202383F311880B7902EB83048B
:1015E0000023A0614C79093442F824008C7902EB85
:1015F00084029061C0F854120221017283F31188B1
:1016000010BC7047AFF30080AFF30080AFF30080F1
:1016100070B5D0F8543200F10C06044630461D680F
:10162000FFF7AEFB04F13000FFF762FC201D012143
:10163000FFF76EFBD4F85402417905EB810228468E
:10164000D36832465B8A00F023F9D4F85412497902
:101650002846BDE8704000F03BB900BFAFF3008002
:1016600090F8443003F06001202901D00020704739
:1016700090F84520212A03D0222A09D0202AF5D12A
:101680000649072200238163C26303640120704777
:1016900000238363C36303640120704700080020B4
:1016A00000EB810370B59C6906460D46ACB1202362
:1016B00083F311880821201DFFF72AFB216CE26BC0
:1016C000A06B8B1A191A11D106EB8502D0684369F9
:1016D000596819B9002383F3118870BD028A501E1E
:1016E00010EA0103F6D183F3118803E0002383F3AA
:1016F00011880B463046294604F1300200F0D8F834
:10170000202383F311883046294600F0F9F8E1E7F9
:1017100001F1090370B550F823400D460646A4B107
:10172000202383F3118804216018FFF7F1FA06EBF8
:101730008501E069CA68A1696369528A401AC11AC1
:101740008A4203D9002383F3118870BD002383F3F9
:101750001188B1FBF2F302FB03F33046294604F192
:101760000C0200F095F8202383F3118830462946B7
:1017700000F0AEF8E6E700BFAFF30080AFF3008003
:10178000704700BFAFF30080AFF30080AFF300807D
:1017900001F03EBDAFF30080AFF30080AFF30080F7
:1017A000002301220270436083600C30FFF7E8B928
:1017B00001F0B6BAAFF30080AFF30080AFF3008062
:1017C0000023012202704360C36183620362C3622B
:1017D0004362036303814381704700BFAFF300801E
:1017E00038B50446202383F3118800254160C56085
:1017F00005614561856101F0ABFA022323702B4638
:1018000083F3118838BD00BFAFF30080AFF30080D1
:1018100070B50646506914460D4618B100211022D5
:1018200002F0F6FAA06918B10021102202F0F0FAD5
:1018300006EB850330462946DC60BDE8704001F0C8
:101840009FBB00BFAFF30080AFF30080AFF3008019
:1018500030B400EB81040025E468A4692570E260DF
:101860006360A56030BC01F05BBC00BFAFF30080DB
:1018700030B400EB81040025E46864692570E260FF
:101880006360A56030BC01F063BC00BFAFF30080B3
:1018900030B400EB8104E568AC6901256360002386
:1018A0002570E260A36030BC01F03ABCAFF3008069
:1018B00030B400EB8104E5686C69012563600023A6
:1018C0002570E260A36030BC01F042BCAFF3008041
:1018D00070B5448944FA01F313F001060D4601D0B6
:1018E000012070BD012303FA01F52C43448101F06E
:1018F0004FFC304670BD00BFAFF30080AFF30080F7
:1019000070B5048944FA01F313F001060D4601D0C5
:10191000012070BD012303FA01F52C43048101F07D
:101920003FFC304670BD00BFAFF30080AFF30080D6
:1019300010B40346002202240470A0F84C2083F85F
:101940004E2080F84F2002814281C26002614261D4
:10195000826183F8342010BC01F06ABAAFF30080D2
:10196000F8B50446002380F8343000F1440201F059
:10197000C7FB6068816841B32046884728B3E56BA0
:1019800094F8443094F84B1094F84A2042EA01202D
:10199000A8423CBF0546E06313F0800F2B467DD183
:1019A000002D68D1052184F83410204629462A46A6
:1019B000FFF75EFF202383F3118820462946FFF7B7
:1019C0009FFF2B4683F31188F8BD94F8443013F041
:1019D000600711D00021204601F002FC20460021C2
:1019E00001F0F6FB63681A6812B1204605219047A2
:1019F000062084F83400F8BD94F8456003F07F02B7
:101A000042EA0626B6F5407F00F0F98016DDB6F50D
:101A1000C06F00F0898068DDB6F5106F00F0B4800B
:101A200040F60242964278D0B6F5006FD2D1012539
:101A300004F14F00A063E5632764A3E7022E00F0E2
:101A4000B58065DDB6F5807F00F08780B6F5817FD3
:101A5000C0D194F846100029BCD194F8485015F034
:101A60000F0150D02A06204600F1FA8001F0C0FB99
:101A700094F8443047E0042284F8342020460021C2
:101A8000A26BFFF7E5FE202383F311880021204697
:101A9000FFF71EFF002383F31188F8BD95B10121E4
:101AA00084F8341020460021A26BFFF7E1FE2023CA
:101AB00083F3118800212046FFF722FF002383F3E0
:101AC0001188F8BD032084F83400294620462A46B0
:101AD000FFF7BEFE202383F3118820462946FFF737
:101AE000F7FE2B4683F31188F8BD40F202308642A0
:101AF00073D0B6F5A06F7FF46DAFB4F84410B1F5B4
:101B0000A06F00F09B800025A563E563256439E79D
:101B1000002E32D0012E7FF45DAF564902250022FF
:101B2000A163E56322642DE7606894F8496094F846
:101B30004830456894F8471094F84620204643EA18
:101B40000623A84700283FF445AF4168056894F88C
:101B50004430A163E563276414E794F84620012A22
:101B60007FF438AFB4F84C00A76320F00201A4F86A
:101B70004C10E76327643D4604E7022504F14C005E
:101B8000A063E5632664FDE694F8465084F84F5060
:101B9000002D44D10321217062681568002DB2D058
:101BA00020460221A84794F84430ACE794F8483026
:101BB00013F0800F204603F00F0133D101F080FABB
:101BC000012833D002287FF405AF2B4DE063A563D5
:101BD000276494F844300546D4E694F8461000296A
:101BE0007FF4F8AE94F8485015F00F018BD02B0617
:101BF00020463AD401F0ECFA94F8443083E794F8A4
:101C00004620012A7FF4E6AEB4F84C50A76345F0B5
:101C10000200A4F84C00E76327643D46B2E60420C6
:101C20002070B9E701F05CFA0128CBD1134AE663D2
:101C3000A263276494F844303546A3E694F846300E
:101C4000204684F84E3001F08BF965682A6812B19D
:101C5000204601219047032094F84430207052E739
:101C600001F0CEFA94F844304DE701F0B9FA94F857
:101C7000443048E790400008A0400008B040000809
:101C800038B590F83430022B044624D0052B36D0DA
:101C9000012B10D0002101F0A3FA2046002101F011
:101CA00097FA6068026812B1204605219047062124
:101CB00084F8341038BD90F84B1090F84A30C26B5D
:101CC00043EA0121914206D9C5682B8AB2FBF3F1A0
:101CD00003FB1125D5B1002103200B4684F8340005
:101CE0000A462046FFF7B4FD202383F31188002124
:101CF0002046FFF7EDFD002383F3118838BD026C09
:101D000002B19047002384F8343038BD2B46294671
:101D10002A46FFF7ADFD202383F31188204629468C
:101D2000FFF7EEFD2B4683F31188022084F8340080
:101D300038BD00BFAFF30080AFF30080AFF3008089
:101D400090F83430032B10B5044626D0042B11D064
:101D50000021204601F044FA2046002101F038FA23
:101D600063681A6812B1204605219047062184F85D
:101D7000341010BD002105220B4680F834200A469D
:101D8000FFF776FD202383F3118800212046FFF71B
:101D9000B7FD002383F3118810BDC1688B699A6871
:101DA000002AD5D1016C01B18847002084F83400A5
:101DB00010BD00BFAFF30080AFF30080AFF3008031
:101DC0004FF4C043C4F2020307481968026810B513
:101DD0003D2401F03D019C600AB140689047BDE898
:101DE0001040FEF73DBB00BF88090020AFF3008024
:101DF0004FF4C043C4F2020308481968826810B562
:101E00008C0904F03D014FF474649C600AB1C06811
:101E10009047BDE81040FEF723BB00BF88090020B3
:101E20004FF4C043C4F2020308481968026910B5B0
:101E30000C0C04F03D014FF474149C600AB140692D
:101E40009047BDE81040FEF70BBB00BF880900209B
:101E50004FF4C043C4F2020308481968826910B500
:101E60008C0D04F03D014FF074649C600AB1C069B0
:101E70009047BDE81040FEF7F3BA00BF8809002084
:101E80004FF4C043C4F2020307485968026A10B510
:101E90003D2401F03D01DC600AB1406A9047BDE895
:101EA0001040FEF7DDBA00BF88090020AFF30080C4
:101EB0004FF4C043C4F2020308485968826A10B55F
:101EC0008C0904F03D014FF47464DC600AB1C06A0F
:101ED0009047BDE81040FEF7C3BA00BF8809002054
:101EE0004FF4C043C4F2020308485968026B10B5AE
:101EF0000C0C04F03D014FF47414DC600AB1406B2B
:101F00009047BDE81040FEF7ABBA00BF880900203B
:101F10004FF4C043C4F2020308485968826B10B5FD
:101F20008C0D04F03D014FF07464DC600AB1C06BAD
:101F30009047BDE81040FEF793BA00BF8809002023
:101F40004FF4C843C4F2020307481968026C10B585
:101F50003D2401F03D019C600AB1406C9047BDE812
:101F60001040FEF77DBA00BF88090020AFF3008063
:101F70004FF4C843C4F2020308481968826C10B5D4
:101F80008C0904F03D014FF474649C600AB1C06C8C
:101F90009047BDE81040FEF763BA00BF88090020F3
:101FA0004FF4C843C4F2020308481968026D10B523
:101FB0000C0C04F03D014FF474149C600AB1406DA8
:101FC0009047BDE81040FEF74BBA00BF88090020DB
:101FD0004FF4C843C4F2020308481968826D10B573
:101FE0008C0D04F03D014FF074649C600AB1C06D2B
:101FF0009047BDE81040FEF733BA00BF88090020C3
:102000004FF4C843C4F2020307485968026E10B582
:102010003D2401F03D01DC600AB1406E9047BDE80F
:102020001040FEF71DBA00BF88090020AFF3008002
:102030004FF4C843C4F2020308485968826E10B5D1
:102040008C0904F03D014FF47464DC600AB1C06E89
:102050009047BDE81040FEF703BA00BF8809002092
:102060004FF4C843C4F2020308485968026F10B520
:102070000C0C04F03D014FF47414DC600AB1406FA5
:102080009047BDE81040FEF7EBB900BF880900207B
:102090004FF4C843C4F2020308485968826F10B570
:1020A0008C0D04F03D014FF07464DC600AB1C06F28
:1020B0009047BDE81040FEF7D3B900BF8809002063
:1020C0002DE9F00F40F608258AB0C2F2000546F26D
:1020D00040400295783046F21045C4F20205A0F562
:1020E00080600495C4F2020046F240450390C4F2B9
:1020F000020546F228400695C4F2020046F27045F9
:102100000590C4F2020546F258400195C4F202005F
:1021100046F2B8450790C4F2020546F28840099598
:10212000C4F20200029D089046F2100B002040F617
:10213000881346F2280A46F2400946F2580846F249
:10214000700C46F2880746F2A006C2F2000328602F
:10215000C4F2020B039DCBF80000C4F2020AC4F2E1
:102160000209C4F20208C4F2020CC4F20207C4F26B
:1021700002061860CAF800009860C9F800001861EB
:10218000C8F800009861CCF80000186238609862C6
:10219000306018632860049D98632860059D18646A
:1021A0002860069D98642860079D186546F21044D3
:1021B00028606034019D986530342860C4F20204C0
:1021C000089D18664FF4C0414FF4C8422860C4F21D
:1021D00002019866C4F202022060099C18674FF061
:1021E000FF35206098678D60CD609560D5600AB03E
:1021F000BDE8F00F704700BFAFF30080AFF3008081
:102200004FF46053C4F2020300224FF0FF3019690B
:1022100070B418611A61596958615A619969986175
:102220009A611E6A4EF2100166F080561E62CEF26E
:1022300000011A6249F23F054EF6F0545E6A586298
:10224000CEF200040720C0F202055A624D608A6097
:102250000860E0684FF48051CEF2000140F08070D9
:10226000E060086840F001000860186C4FF4E0413D
:10227000C4F2000140F080501864086840F4807097
:102280000860196F01F44070B0F5007F03D04FF47F
:10229000803119671A674FF46053C4F202031A6F52
:1022A000120407D4186F40F4007119671A6F42F4D2
:1022B0000040186770BCFFF703BF00BFAFF300809A
:1022C0004FF46052C4F202024FF4E043C4F2000340
:1022D0004FF0805111644FF4804218461A604368F1
:1022E0005904FCD54FF46050C4F202000146026864
:1022F00042F00103036008684FF460538207C4F2A0
:102300000203F8D5196841F480321A60194608684A
:102310004FF460538003C4F20203F8D55A6F42F0C1
:10232000010159671846426F4FF460539207C4F297
:102330000203F8D545F20841C0F2407159601868AF
:1023400040F080721A60194608684FF460538001AB
:10235000C4F20203F8D598684FF414424FF4705158
:10236000C3F60802C4F20201104340F205729860FD
:102370000A60996841F002009860996801F00C00C9
:102380004FF460520828C4F20202F6D1536C43F4B1
:1023900080415164506E40F480435366704700BFE3
:1023A00038B51C4D2B691A8A9C89A4B21440E143AC
:1023B00004F0020089B282B21982002A24D104F00A
:1023C000040082B2DAB904F0080082B292B904F0D3
:1023D000100082B24AB9E30703D56A680D489368D2
:1023E0009847BDE83840FEF73BB86B680948996AE2
:1023F0008847F0E76B680748196A8847E7E76B6822
:10240000044899698847DEE76B6828461969884758
:10241000D5E700BF0C0A0020AFF30080AFF30080C7
:1024200010B540F60C24C2F200042046FEF758FF17
:102430004FF40063C4F20003236110BDAFF30080CA
:102440004FF46053C4F202031A6B6FEA52216FEA31
:1024500041221A63196D6FEA51226FEA4221196510
:1024600000234168C4F202034FF48062596081681E
:102470009960C168D96001695961416919628169CE
:10248000596201681960016AC4F202024FF40063E4
:102490005160416A9160816AD160C16A5161016B8A
:1024A0001162416B5162C1691160C4F20203C26BD7
:1024B0005A60016C9960426CDA60816C5961C26C3F
:1024C0001A62016D5962816B4FF440621960816D2F
:1024D000C4F202024FF480535160C16D9160016EED
:1024E000D160416E5161816E1162C16E5162416D68
:1024F0001160C4F20203426F5A60816F9960C26F2B
:10250000DA60D0F880105961D0F884201A62D0F8CF
:1025100088105962016F4FF4A0521960D0F89010E2
:10252000C4F202024FF4C0535160D0F8941091608D
:10253000D0F89810D160D0F89C105161D0F8A0105C
:102540001162D0F8A4105162D0F88C101160D0F84C
:10255000AC10C4F202034FF4E0525960D0F8B0104E
:102560009960D0F8B410D960D0F8B8105961D0F89B
:10257000BC101962D0F8C0105962D0F8A810C4F28B
:1025800002021960D0F8C8305360D0F8CC109160C6
:10259000D0F8D030D360D0F8D4105161D0F8D83012
:1025A0001362D0F8DC105162D0F8C4104FF400531D
:1025B0001160D0F8E420C4F202035A60D0F8E810A9
:1025C0009960D0F8EC20DA60D0F8F0105961D0F8BA
:1025D000F4201A62D0F8F8105962D0F8E0001860C0
:1025E000704700BFAFF30080AFF30080AFF300800F
:1025F000416D036D00222DE9F00110468F684FF008
:10260000804C4FF0FF3617E0585055015C1902F12D
:1026100058014901C4F81009C4F8086953F8018049
:10262000B8F1000F17DB58505D190132BA42C5F8F6
:10263000100BC5F8086B15D802F1480461015D580C
:10264000002DE1DA550143F801C05C19D4F80819EE
:102650008907FBD5DAE743F801C0D4F8081BC9069F
:10266000FBD5E1E74FF00110C3F81C08BDE8F0010D
:10267000704700BFAFF30080AFF30080AFF300807E
:10268000F8B5046D04EB41134FF0FF32D3F8086B3B
:10269000C3F8082B330705460F4603D5D4F8143882
:1026A0001A0715D4F30703D5D4F81408C00700D4CB
:1026B000F8BD05EB87036989D868012202FA07F2A1
:1026C00021EA02036B81C268394628469047F8BD6B
:1026D00000EB8102D3685A689047E3E7AFF30080CC
:1026E000026D890141F02003136110698106FCD459
:1026F0000C20FEF7D5BD00BFAFF30080AFF3008024
:102700002DE9F04F40F64011C2F20001D0F850A080
:102710008A698346914887B02023906183F31188AA
:102720004FF000089BF80030012B06D0DBF85C402E
:102730009CB9DAF81450E8060FD440F64017C2F2FC
:102740000007DAF81860B96946F01002CAF81820D4
:102750000220CBF86410FEF72BF8002383F31188D6
:102760001C46DAF8140010F010073AD0DBF85000DD
:10277000016A01F4F015B5F5802F47D0B5F5402F6B
:10278000EFD101F00F070BEB8702C1F30A16D368F4
:10279000F11C8D081F6AE4D000F580506A1E0368A2
:1027A000114647F8043B02F001060123002AD8D065
:1027B0002EB105680023511E47F8045BD1D0026892
:1027C00013B147F8042B013B0139066813B147F8F0
:1027D000046B013B0139F2D1DAF8140010F0100754
:1027E000C4D10125DBF85C30A5401D42049540F0C2
:1027F000B78001340594DBF85420059B9068DCB267
:102800008442AED9202383F311888BE701F00F07B0
:1028100002370BEB8705C1F30A166A6891690B78DA
:10282000002B3BD10D1D2CCD0332D31AF21C9B087B
:10283000920829D000F5805002F1FF3909F0010C0F
:10284000AE46D0F800901BB1AE46013B4EF8049B5B
:10285000013A19D0BCF1000F07D0D0F800C013B175
:102860004EF804CB013B013A0ED08946016813B102
:102870004EF8041B013B013A016813B14EF8041BEA
:10288000013B013AF2D14946AD19CD600BEB870708
:1028900078688569A9688E19AE6062E700F5805096
:1028A000CD68002E40D03346A446032B696907D972
:1028B0002C69A14204D3EC68032B6C616969F7D8D9
:1028C000026801F8012B2C696961A14224BFE96803
:1028D0006961012B27D0D5F814E0110A0EF8011B0D
:1028E0002C69C5F814E0A64524BFEC686C61022B86
:1028F00019D0D5F81490110C09F8011B2C69C5F8F2
:102900001490A14524BFEC686C61032B0BD069695E
:10291000120E01F8012B2C696961A14224BFEC68F9
:102920006C61043BC1D16446202383F31188A968FC
:1029300028688A19A842AA6009D003682B605D60E4
:10294000FDF726FFC0F824802868A842F5D1FDF7DE
:10295000D7FF002383F3118898E700BF9041000858
:10296000202383F31188DAF80860DBF85C10049800
:1029700026F0010221EA0005CAF808203B46CBF800
:102980005C5083F31188A71C0BEB87035D686869B3
:1029900082684668964240F2FA80DBF850102D8A31
:1029A00067010297CF19B61AD7F81829B54228BF80
:1029B000354697B20134B5EB870F059447D8260307
:1029C000019603930378002B57D1019FEA1C5FEA1D
:1029D000920E01EB0704C7681ED03A460EF1FF368F
:1029E00052F804CB334606F00109019E043241F847
:1029F00006C08BB1B9F1000F05D052F8041C0432A7
:102A0000013B216008D052F8046C266052F8041B88
:102A10000432023B2160F6D17C19C46003984468FB
:102A2000606986684268AB199A42836040F2B1805F
:102A3000029DDBF85010248A4F19D51AD7F818696F
:102A4000A54228BF2546B2B2B5EB820FBAD9002005
:102A5000202383F31188DAF8081041F00104CAF842
:102A6000084030B9DAF83458049F47EA0506CAF836
:102A70003468002383F31188BDE6019AC46889187D
:102A8000002D35D020692A46AE4697084BD0A5695F
:102A9000431B48BF03339B109F4238BF3B464FEA5E
:102AA000830CCCEB0202DBB12E465F1E56F8049B72
:102AB0003B46C1F8009007F0010704367BB12FB107
:102AC00056F8047C0436013B0F6008D056F8047CAD
:102AD0000F6056F8047B0436023B0F60F6D1654464
:102AE000A842A5611DD8E668A661002ACDD1754629
:102AF000202383F31188A16820684F19A042A760A2
:102B000009D0036823605C60FDF742FEC0F82480B2
:102B10002068A042F5D1FDF7F3FE002383F311886E
:102B20007CE7002AE3D0A66916F8013BB042A66113
:102B30009CBFE668A661012A27D0A76917F8015B48
:102B4000B842A7619CBFE768A761022A43EA052350
:102B50001BD0A76917F8016BB842A7619CBFE76853
:102B6000A761032A43EA06430FD0A56915F8017B44
:102B70008542A56124BFE568A561043A43EA07637D
:102B800003D00B60002A80D1B1E70022F9E7631C73
:102B9000059301205CE700BFAFF30080AFF3008036
:102BA000F8B5046D04EB41134FF0FF32D3F8086918
:102BB000C3F80829F30705460F4603D5D4F81038A3
:102BC000DA071FD4330606D50121D4F8340801FAF8
:102BD00007F7074200D1F8BD202383F31188EB6D7E
:102BE000D4F83428686E3B4322EA0707EB65C4F843
:102BF000347818B1FDF7CCFD00206866002383F31C
:102C00001188F8BD00EB8102B0F808E0D36801221A
:102C100002FA01F22EEA020202819B689847D1E78C
:102C200070B53E4E356D6B69AC691C40E1046C615A
:102C30002BD4A20448BFD5F80838230704D5706800
:102C4000C16809B135488847E00629D46103D5F841
:102C5000185807D5EA0749D4AB074DD4680751D4B3
:102C6000290755D4220307D5EB0332D4A80336D461
:102C7000690327D42A0303D4BDE87040FDF7F0BBF5
:102C800026480321FFF7FCFCF6E73046FEF750FE2E
:102C900073681B68002BCCD0304600219847C8E7EA
:102CA000202383F31188AA69706E22F01003AB61B0
:102CB00020B1FDF76DFD194900204866002383F31C
:102CC0001188C3E702211548FFF7DAFC2A03D3D5A0
:102CD000D6E712480021FFF7D3FCA803C8D501218D
:102CE0000E48FFF7CDFC6903C4D5EBE700210B4884
:102CF000FFF756FFAB07B1D508480121FFF750FF9A
:102D00006807ADD502210548FFF74AFF2907A9D575
:102D100002480321FFF744FFA4E700BF200A002078
:102D200010B540F62024C2F200042046FEF748FD0C
:102D300044F2801100234FF0A040C0F6000123664A
:102D400063662065616510BDAFF30080AFF300805E
:102D500070B50378056D012B82B0064601D002B034
:102D600070BD3048864249D0316E0024F465002998
:102D700038D04FF4A250346DC4F200000323E86051
:102D8000C0F2202300224FF450210120C5F8003862
:102D9000C5F8002EA96320612369D807FCD40C2054
:102DA000FEF77EFA2269002AFCDA00243046AC6085
:102DB000FFF71EFC7168C5F81048C868C5F81448CC
:102DC000C5F81C4850B143F20803AB614FF0FF3126
:102DD0006961A86840F00103AB60C0E74FF440525E
:102DE000AA61F3E7009606F168004FF49871022299
:102DF0000D4BFDF7CDFD70663066BAE74FF46051BC
:102E0000C4F202014A6B42F080044C634B69002219
:102E100043F0800048614A614320E021FDF778FBE0
:102E2000A2E700BF200A002001270008AFF30080BE
:102E30002DE9F84F80460021046DFFF751FCD8F8CA
:102E400054B0DBF808A04FF00061FF22C4F800196D
:102E50000AF00106C4F8001B0123C4F80829C4F8CD
:102E6000082BBAF1000F33D066B102235345C4F8E2
:102E7000201904F51267C4F8201BC4F82829C4F8E7
:102E8000282B25D85F1C03F1480903F1580003F1F2
:102E9000490C03F1590E04EB431604EB47154001AE
:102EA0004FEA49194FEA4C1C4FEA4E1E0233534574
:102EB00044F809102150C6F80829C6F8082B44F830
:102EC0000C1044F80E10C5F80829C5F8082BD9D9FC
:102ED000DBF80030D8F850204FF0FF314FF00116EA
:102EE0001025C4F81818C4F81C68C8F85830636274
:102EF0001561106910F01005FBD10C20FEF7D0F918
:102F0000D4F80038D8F8581023F4FE62C4F800282A
:102F1000A66946F44020092240F01006A66148F256
:102F20004003C4F81028C4F814280B4AC1F2000367
:102F300001F1100041F48011C8F80C20C4F8105BB6
:102F4000C4F8003BC4F81059C4F80039C8F8580058
:102F5000A162BDE8F88F00BFA0410008AFF3008078
:102F6000036D90F84E10D3F8002822F4FE6040EA7A
:102F70000111C3F800187047AFF30080AFF3008071
:102F80002DE9F0418F1C00EB870306465B68046D5A
:102F90001A6802F0030002280D464FF4004854D08E
:102FA000032855D04146C1F20001C1F204080128AE
:102FB00018BF88466A01A0180021C0F8101BD86805
:102FC000002848D0588A05F15801490148EA000014
:102FD00060504FF0010CD4F81C0805F110010CFAF8
:102FE00001F10143C4F81C18A21899680020C2F826
:102FF0001009002942D09A8B198A8B08012A88BFB0
:103000005343B26D05F13F0004EB80019818B065A1
:1030100042EA0343304606EB87064B602946FFF73A
:103020005FFB7268108A05F148014B0140EA855147
:1030300041EA0802E2500123D4F81C0803FA05F51E
:103040000543C4F81C58BDE8F081C1F20808B1E797
:10305000C1F20C08AEE705F15801490105F1100E67
:10306000605820F4004060500121D4F81C0801FA97
:103070000EF120EA0100C4F81C08B5E705F13F0392
:1030800004EB83024FF48061C0F2002151603046AE
:103090002946FFF725FB05F148004301E25822F4D9
:1030A0000041E1500123D4F81C0803FA05F520EA99
:1030B0000505C4F81C58BDE8F08100BFAFF30080DF
:1030C0005831036D49015A5812F4004004D012F4EB
:1030D000001F0CBF02200120704700BFAFF300802B
:1030E0004831036D49015A5812F4004004D012F4DB
:1030F000001F0CBF02200120704700BFAFF300800B
:1031000000EB8101CB68186A016843681160536065
:10311000704700BFAFF30080AFF30080AFF30080D3
:1031200000EB810310B4DC68006DA269638A546807
:10313000621ED41800EB411143F0C042B4FBF3F31C
:1031400042EAC340C1F8100B10BC7047AFF30080D7
:1031500000EB810310B4DA6853695B686BB1128AC3
:10316000006D5C1EA418B4FBF2F200EB411143EABF
:10317000C243C1F8103910BC7047006D00EB41121A
:103180004FF40021C2F81019F5E700BFAFF300803B
:103190005831036D49015A5842F0806058507047C9
:1031A00001F14802036D5201985840F004409850D4
:1031B0000120D3F8342800FA01F11143C3F8341880
:1031C000704700BFAFF30080AFF30080AFF3008023
:1031D0005831036D49015A5842F400105850704755
:1031E0004831036D49015A5842F400105850704755
:1031F0005831036D49015A5822F400105850704755
:103200004831036D49015A5822F400105850704754
:10321000F8B540F6D03340F6D435C2F20005C2F21C
:103220000003194E4FF6FF72284640F60444C2F2DE
:1032300000041A80FEF7B4FA4FF4405116224623D8
:10324000C4F20101C0F20162C0F2016306F1240779
:103250002046E9612E62AA62EB626F62FEF7A0FA75
:103260004FF4605116224623A6F13C00C4F200013F
:10327000303EC0F20102C0F20103E16120626662E9
:10328000A262E362F8BD00BF20410008AFF30080F6
:103290004FF48843C4F200039A8990B240F0800151
:1032A00099817047AFF30080AFF30080AFF30080E7
:1032B000F8B5474B5D6FAE892C88A988A4B2220768
:1032C000B6B28FB24BD104F4807188B2002834D1E9
:1032D00004F0200293B2002B24D106F0800188B2C2
:1032E00020B104F0800293B2002B59D104F04004C5
:1032F000A4B29CB1202383F3118836481021FDF736
:1033000007FD002383F311884FF6BF733340AB8171
:10331000298821F040000204130C2B80BDE8F840FE
:10332000FDF79EB8202383F311882948F9B2FEF7F0
:103330004FF8002383F31188CFE7202383F311880C
:1033400024484FF40071FDF7E3FC002383F3118858
:103350002A8822F480731904080C2880B8E704F046
:10336000080082B2002A14BF80210021E30704F084
:10337000020398B248BF41F0200108B141F040017A
:1033800004F0040293B20BB141F48071202383F363
:1033900011881048FDF7BCFC002383F3118892E7E5
:1033A000202383F311880C48FDF7E2FD002805DB9C
:1033B00081B2A980002383F3118897E7054808218B
:1033C000FDF7A6FC26F0C00040F04002AA81F1E71C
:1033D000340C0020380C0020640C0020AFF3008077
:1033E00010B540F63444C2F2000443F29122204664
:1033F0000021C0F60002FDF7C3FF4FF48843C4F27A
:103400000003636710BD00BFAFF30080AFF300801F
:10341000FEF756BFAFF30080AFF30080AFF300803C
:10342000704700BFAFF30080AFF30080AFF30080C0
:1034300038B504460D4698B128600C49204600F086
:10344000CFFD24182046094900F0A2FD286018B1DC
:10345000002300F8013B2860207820B1204638BDC9
:103460000C68002CE9D10024204638BDD042000869
:10347000002903DD0449054A00F00ABA044B054956
:10348000DA6800F005BA00BFD4420008E042000844
:1034900030090020E8420008AFF30080AFF300805D
:1034A00010B5002982B0044606DD1949194A02B058
:1034B000BDE8104000F0ECB91749184A00F0E8F9EF
:1034C00020461749174A00F0E3F920461649174AE3
:1034D00000F0DEF920461649164A00F0D9F92046D8
:1034E0001549164A00F0D4F920461549154A00F04E
:1034F000CFF920461449154A00F0CAF9144B154972
:1035000000932046144A154B00F0C2F902B010BDDA
:10351000D4420008F0420008F84200080C430008BA
:103520001C43000830430008784300088C4300081F
:1035300098430008AC430008B8430008CC43000897
:10354000E4430008F8430008144400082844000835
:103550007844000850440008684400087444000897
:1035600040F6AC43C2F200031B607047AFF300802B
:1035700000B583B043F231630090C0F60003002031
:10358000FDF7B6FA03B000BDAFF30080AFF30080E3
:10359000F0B5013A83B00E4604460D468F182368F5
:1035A00001220DF107015B682046984738B39DF86A
:1035B0000710042926D008290ED00D2928D01F294C
:1035C000EDD9BD42EBD222682046936898479DF81A
:1035D000070005F8010BE2E7B5422046DFD022687C
:1035E0009368984720682021826820469047236886
:1035F0009DF807109A6820469047013DCFE70120CB
:1036000003B0F0BD2046064900F042F90120F7E77B
:103610002046044900F03CF900202870F0E700BF84
:10362000844400085C470008AFF30080AFF30080DB
:103630002DE9F0436A4B05689C696A4A47686A4904
:10364000A26197B0284600F023F9DFF8C081284630
:10365000664900F01DF9284606A94022FFF798FFA9
:103660000446002830D1694606A8FFF7E1FE694606
:1036700006462046FFF7DCFE0346002836D02046EB
:1036800069460193FFF7D4FE0246002850D0204639
:1036900069460292FFF7CCFE034600284AD0204636
:1036A00069460393FFF7C4FE0246002844D0204633
:1036B00069460492FFF7BCFE00283FD028464C49DB
:1036C00000F0E6F80594C2E728464A4900F0E0F821
:1036D000202383F3118800214748FDF719FB0020C0
:1036E000FDF7B6F9002017B0BDE8F083044616A830
:1036F00000EB8401002341F8543C002EA7D0304653
:103700003E4900F01DFC38B9002CE1D028463C4968
:103710003A4A00F0BDF89AE730463A4900F010FC0A
:1037200070B928461CB33649364A00F0B1F88EE726
:103730000124DCE70224DAE70324D8E70424D6E7EF
:10374000D8F80000002832D0DFF8C09003E059F824
:10375000080F00282BD0314600F0F2FB0028F6D1EC
:10376000D9F804302846214601AA98476FE7264930
:1037700000F08EF8D8F8002042B1244C28462449A5
:1037800000F086F854F8082F002AF7D157B13A68AC
:1037900042B13C4628461E4900F07AF854F8082FFA
:1037A000002AF7D128461B4900F072F84FE767B1AD
:1037B000386850B1B94602E059F8080F28B13146CF
:1037C00000F0BEFB0028F7D1CAE72846124932466E
:1037D00000F05EF82846114900F05AF837E700BFBC
:1037E000400900208844000890440008A8440008CC
:1037F000BC440008B0440008AC0C0020D4440008CD
:10380000D4420008DC440008E44400080808002012
:10381000FC4400085C470008004500080445000817
:10382000F0B400F10B0C074600F10A050C46B1FBA1
:10383000F2F602FB161101F13003392BC8BF01F17A
:103840003703DBB2B4FBF2F42846314605F8013900
:10385000002CECD1C0EB0C020146B818FA438218D8
:10386000D2070AD507F8013B11F8013F05E011F82E
:10387000013F7B7011F8013F571C3A4602F8013BAB
:103880008242F4D1F0BC7047AFF30080AFF3008008
:103890000EB42DE9F04F86B00FAB0DF10D010DF117
:1038A0000C0B53F8044B0091CBEB010C0293054633
:1038B000CDF804C0264616F8011B59B125290ED0B3
:1038C0002C68A368344626462846984716F8011BFC
:1038D0000029F3D106B0BDE8F04F03B0704763781C
:1038E0002D2B00F07A814FF000082E2B00F0718113
:1038F000202734460299002606E00A78043106EBB8
:103900008606237802EB4606A3F13002D2B20134D8
:10391000092AF4D92A2BF0D000202E2B02914BD06B
:103920006C2B55D04C2B53D0A3F1410119298CBFDE
:1039300000210121A3F14402342A00F24481DFE88E
:1039400012F03301420142014201420133014201BE
:103950004201420142014201310142014201420160
:10396000420142012901420142011C01420142017E
:10397000420142014201420142014201420142012F
:10398000E20033014201420142014201330142019E
:103990004201420142014201310142014201420120
:1039A0004F0042012901420142011C010A78043101
:1039B00000EB800302EB430014F8013BA3F130025B
:1039C000D2B2092AF4D92A2BF0D06C2B0291A9D1BA
:1039D0002178002900F006810B4601340121A9E776
:1039E000029F44F210593B68C0F60009002B18BF33
:1039F0009946391D99F80020029147F6FF77002873
:103A000008BF3846002A00F0098199F80130411EAC
:103A100009EB000A09F1010201F00100B3B192457E
:103A2000134600F0F78060B15778013277B19245C4
:103A3000134606D1EEE0577801323FB19A4500F0C7
:103A4000E98058785A1C531C0028F4D1C9EB020AAB
:103A5000CAEB0606202726EAE676B8F1000F63D007
:103A6000BAF1000F27DDC846286818F8011B8368E3
:103A7000CA446FEA09090AEB0902284602F0010963
:103A80009847D04517D0B9F1000F03D0286818F82F
:103A9000011B0BE02868C146826819F8011B284603
:103AA0009047286898F8011009F1010883682846B2
:103AB0009847D045EED1002E3FF4FCAE2968731E26
:103AC0008A681E462846394603F001089047002EB2
:103AD0003FF4F0AEB8F1000F07D0296828468B6894
:103AE00039469847013E3FF4E5AE2868394682687A
:103AF000284690472968013E8B68284639469847F2
:103B0000013EF2D1D6E60298DDF804A00268011D5C
:103B100002918DF80C202027D946CAEB060626EA2A
:103B2000E676B8F1000F9BD17642002E98D099F836
:103B300000102D2963D02968F2438B682846394646
:103B400002F00108984701368AD0B8F1000F06D07C
:103B5000296828468A6839469047013680D0286807
:103B60003946836828469847296801368A68284676
:103B7000394690470136F2D172E71022029B69B1B3
:103B8000191D029119685846FFF74AFED946CBEB3A
:103B9000000AC2E70A22029B0029F1D1181D196808
:103BA0000290F0E70822E9E7029B1A1DE1B91968C3
:103BB000029200291CDB58460A22FFF731FED94643
:103BC000CBEB000AA9E78DF80C30DDF804A0D9464C
:103BD000A3E77378302701368BE6A61CA3784FF055
:103BE000010882E60121A5E6196802920029E2DABD
:103BF0002D208DF80C0049420DF10D00DCE7302F2F
:103C000099D12B6828469A68904709F101090AF171
:103C1000FF3A90E7C9EB0A0A20277EE79246202761
:103C20007BE700BFAFF30080AFF30080AFF300800D
:103C3000022906D0032906D00748012918BF002011
:103C4000704706487047032A03D8054800EBC200B6
:103C500070470020704700BFD0460008A04500080C
:103C6000A0460008AFF30080AFF30080AFF3008000
:103C7000022938B50C46054611D1202383F311885B
:103C80000121074AFDF7C4FD28462146054AFDF7F4
:103C9000BFFD0548FDF7BCFC002383F3118838BD48
:103CA00020450008B0450008E00C0020AFF300807C
:103CB000002910B5044604DD0649BDE81040FFF7B1
:103CC000E7BD0549FFF7E4FD04492046BDE8104083
:103CD000FFF7DEBD40470008504700086047000876
:103CE000F0B5002985B0064605DD134905B0BDE8ED
:103CF000F040FFF7CDBD1149114FFFF7C9FDFCF7AB
:103D000017FF0446A268E368256A0092A07F0D4968
:103D1000421E0192207F039557F8205022463046DC
:103D20000295FFF7B5FD2046FCF712FF0446002878
:103D3000E8D105B0F0BD00BF74470008884700080F
:103D400000470008B8470008AFF30080AFF30080D9
:103D500030B5002983B0044604DD0E49FFF798FD15
:103D600003B030BD01A90020FDF752FA0546FDF76A
:103D70009FF9094902462046FFF78AFD20462A4658
:103D80000649FFF785FD20460549019AFFF780FDAA
:103D9000E6E700BFD8470008E847000808480008E1
:103DA00020480008AFF30080AFF30080AFF300803D
:103DB00038B540F6E045C2F2000544F2C064FFF7B2
:103DC000CFFBC0F600042846FDF7D2FB214628466B
:103DD000FDF7FEFB2368196D8A6B22F400238B63C9
:103DE0004FF47A70FCF724FE44F2E0512068C0F6EC
:103DF0000001FDF7F5FC2068016D8A6B42F4002399
:103E00008B6338BDAFF30080AFF30080AFF3008069
:103E1000F0B48407034600F08E80541E002A00F0A0
:103E20008880E507CEB211D41A46671E02F8016BEE
:103E30001346154692070FD0002C7AD003F8016B79
:103E40009A073C461D4607D0013CEDE7034603F8C0
:103E5000016B9A071D46F7D1032C52D9CEB246EA20
:103E600006270F2C47EA07432DD9A4F11002174665
:103E70000F2FC2F300162B606B60AB60EB6005F197
:103E8000100216D93EB1103F136053609360D360A7
:103E900010320F2F0DD9203F02F11006136053602E
:103EA0009360D360136153619361D36120320F2F0C
:103EB000F1D8A4F1100222F00F0204F00F04103226
:103EC000032C15441DD9271F3E462A46032E42F8CF
:103ED000043BC7F380070DD927B1043E032E42F8F7
:103EE000043B07D91746083E47F8043B53603A1D88
:103EF000032EF7D8231F23F00302131D04F003043D
:103F0000ED18B4B12B46C9B203F8011B2C19ED43CF
:103F10006219A34202F001050BD01DB103F8011B89
:103F2000A34206D01A4602F8011B5970531CA34243
:103F3000F8D1F0BC7047054614468DE7000000003C
:103F40000F4B70B41D6810F8016BAC1932466378E2
:103F500003F00304012C11F8014B08BF06F1200205
:103F60002E192346767806F00306012E08BF04F1C9
:103F70002003D21A01D1002BE5D1104670BC704746
:103F800020080020000000000000000000000000E9
:103F9000F0B40478002C1FD00E780746A6B1A642D4
:103FA00018D04B1C01E0944209D01D4613F8012B98
:103FB000002AF8D17C780130002CEED12A78002A32
:103FC00008BF0020F0BC70477C780D460130002C03
:103FD000E3D1F3E73246F2E72046F3E700000000C2
:103FE000F0B40478D4B10F7806469FB10546BC42C0
:103FF00018BF0A4602D108E09C4206D012F8013FE1
:10400000002BF9D1281AF0BC70476C7801361CB12E
:104010003546ECE73846F6E7301AF4E72046F2E793
:1040200069646C65000000000000000000000000F2
:104030006D61696E00164211040448080C101418D2
:10404000001C1D1E1F2000000000000000000000DA
:104050002113000801130008611300084113000830
:10406000511300083113000811130008F112000861
:1040700011150008F1140008511500083115000849
:10408000411500082115000801150008E114000879
:104090000000000000000000000000000000000020
:1040A0000000000000000000000000000000000010
:1040B00001000000000000000000000000000000FF
:1040C000106002400860024000000B0028600240BF
:1040D0000860024006010C00406002400860024097
:1040E00010020D00586002400860024016030E00E6
:1040F000706002400C60024000040F0088600240C3
:104100000C60024006051000A06002400C600240F6
:1041100010061100B86002400C60024016072F0024
:10412000106402400864024000083800286402401D
:1041300008640240060939004064024008640240F5
:10414000100A3A005864024008640240160B3B0013
:10415000706402400C640240000C3C008864024021
:104160000C640240060D4400A06402400C6402404E
:10417000100E4500B86402400C640240160F460061
:10418000800000008001000003000000000000002B
:104190007573625F6C6C645F70756D700000000019
:1041A0000000000061190008811C0008411D000882
:1041B00040004000B80B0020B80B002001000000B8
:1041C000C80B0020000000000000000000000000FC
:1041D00000AAA02A00000000FFABFFFF540001402E
:1041E000FFFF00000000565500AA0A0080200800CA
:1041F00040020000FFFFFFFF15455155FFFF000083
:1042000000000004400000000180200200000000C7
:10421000FFFFFFFF54154554FFFF00000000006042
:10422000000606000001005500000000FFFFFFFF30
:1042300055505500FF0F0000000000000000000076
:104240004000000000000000FFFFFFFF0000000032
:10425000FFFF000000000000000000000000000060
:1042600000000000FFFFFFFF00000000FFFF000054
:10427000000000000000000000000000000000003E
:10428000FFFFFFFF00000000FFFF00000000000034
:10429000000000000000000000000000FFFFFFFF22
:1042A00000000000FFFF0000000000000000000010
:1042B0000000000000000000FFFFFFFF0000000002
:1042C000FFFF0000000000000000000000000000F0
:1042D0002009000055736167653A2025730D0A00B7
:1042E00073797374696D6500256C750D0A000000A3
:1042F000696E666F000000004B65726E656C3A2057
:1043000020202020202025730D0A0000322E352E7B
:1043100032756E737461626C65000000436F6D707E
:10432000696C65723A202020202025730D0A000058
:1043300047434320342E372E33203230313330334D
:104340003132202872656C6561736529205B4152AA
:104350004D2F656D6265646465642D345F372D6231
:1043600072616E6368207265766973696F6E203161
:1043700039363631355D00004172636869746563B2
:10438000747572653A2025730D0A000041524D760E
:10439000372D4D4500000000436F72652056617255
:1043A00069616E743A2025730D0A0000436F7274C0
:1043B00065782D4D34000000506F727420496E6690
:1043C0006F3A2020202025730D0A00004164766199
:1043D0006E636564206B65726E656C206D6F6465DD
:1043E00000000000506C6174666F726D3A202020EE
:1043F000202025730D0A000053544D333246347883
:1044000078204869676820506572666F726D616ECA
:1044100063650000426F6172643A202020202020F2
:10442000202025730D0A000053544D6963726F6597
:104430006C656374726F6E6963732053544D3332CD
:1044400046342D446973636F76657279000000000D
:104450004275696C642074696D653A20202025736B
:10446000257325730D0A00004D6179203331203208
:1044700030313300202D200031323A31353A33309B
:10448000000000005E4400007368656C6C00000072
:104490000D0A43686962694F532F5254205368656F
:1044A0006C6C0D0A0000000063683E2000000000F4
:1044B0000D0A6C6F676F757400000000746F6F20D9
:1044C0006D616E7920617267756D656E74730D0A2A
:1044D00000000000657869740000000068656C7079
:1044E00000000000436F6D6D616E64733A20686573
:1044F0006C7020657869742000000000257320002E
:1045000025730000203F0D0A00000000000000009D
:10451000286E756C6C29000000000000000000008F
:104520000200000000000000A1160008111700089A
:1045300040004000B00C0020D00C00200200000021
:10454000000000000000000000000000000000006B
:1045500009024300020100C0320904000001020206
:1045600001000524001001052401000104240202B9
:104570000524060001070582030800FF0904010065
:10458000020A000000070501024000000705810241
:1045900040000000000000000000000000000000DB
:1045A000430000005045000800000000000000002B
:1045B0000300000000000000811700080000000058
:1045C00010000000C00C00200000000001000000EE
:1045D00000000000000000000000000000000000DB
:1045E000713C0008313C0008611600080000000022
:1045F0001201100102000040830440570002010232
:1046000003010000000000000000000000000000A6
:104610000403090400000000000000000000000086
:104620002603530054004D006900630072006F00C0
:1046300065006C0065006300740072006F006E001E
:10464000690063007300000000000000000000002B
:104650003803430068006900620069004F0053009E
:104660002F005200540020005600690072007400B0
:10467000750061006C00200043004F004D002000D9
:1046800050006F0072007400000000000000000085
:104690000803320035003200000000000000000076
:1046A0000400000010460008260000002046000814
:1046B000380000005046000808000000904600083E
:1046C000200A00200101020000000000000000009C
:1046D00012000000F045000800000000000000008B
:1046E000C4480008513D0008C8480008E13C0008E3
:1046F000D0480008B13C00080000000000000000A5
:104700004048000848480008504800085C48000835
:10471000644800086C480008744800088048000895
:1047200088480008904800089C480008A4480008F1
:10473000AC480008B4480008BC480008000000006D
:1047400055736167653A2061626F75740D0A0000E8
:10475000434443205643502044656D6F0D0A0000CA
:1047600042792052756D6D616E2057617161720DD5
:104770000A00000055736167653A207468726561CC
:1047800064730D0A00000000202020206164647220
:1047900020202020737461636B207072696F207217
:1047A000656673202020202073746174652074690D
:1047B0006D650D0A00000000252E386C7820252E2E
:1047C000386C782025346C752025346C752025399B
:1047D0007320256C750D0A0055736167653A206D6D
:1047E000656D0D0A00000000636F726520667265DA
:1047F00065206D656D6F7279203A2025752062798C
:104800007465730D0A00000068656170206672614E
:10481000676D656E74732020203A2025750D0A009F
:1048200068656170206672656520746F74616C20C4
:10483000203A2025752062797465730D0A00000006
:10484000524541445900000043555252454E5400D0
:1048500053555350454E444544000000575453456A
:104860004D00000057544D54580000005754434F1A
:104870004E440000534C454550494E47000000004F
:10488000575445584954000057544F524556540008
:104890005754414E4445565400000000534E444D79
:1048A00053475100534E444D5347000057544D5306
:1048B00047000000575451554555450046494E4163
:1048C0004C0000006D656D00746872656164730072
:1048D00061626F75740000000000000000000000BD
:1048E000E00C0020E046000800000000000000008E
:1048F00000202020202020202020282828282820B0
:1049000020202020202020202020202020202020A7
:10491000208810101010101010101010101010100F
:1049200010040404040404040404041010101010FF
:1049300010104141414141410101010101010101C9
:10494000010101010101010101010101101010101B
:10495000101042424242424202020202020202029B
:1049600002020202020202020202020210101010EF
:104970002000000000000000000000000000000017
:104980000000000000000000000000000000000027
:104990000000000000000000000000000000000017
:1049A0000000000000000000000000000000000007
:1049B00000000000000000000000000000000000F7
:1049C00000000000000000000000000000000000E7
:1049D00000000000000000000000000000000000D7
:1049E00000000000000000000000000000000000C7
:0449F00000000000C3
:1049F8000096000000000800F0420008A1340008FA
:104A0800E0420008713400080000000000000000C7
:044A1800F04800085A
:0400000508000211DC
:00000001FF
