:020000040800F2
:100000000004002091020008610400086104000857
:10001000610400086104000861040008610400082C
:1000200061040008610400086104000881040008FC
:10003000610400086104000861040008510500081B
:1000400061040008610400086104000861040008FC
:1000500061040008610400086104000861040008EC
:1000600061040008610400086104000881160008AA
:10007000B1160008E1160008111700084117000822
:1000800071170008A1170008D11C000861040008BE
:1000900061040008610400086104000861040008AC
:1000A000610400086104000861040008610400089C
:1000B0006104000861040008511D00086104000883
:1000C000610400086104000861040008610400087C
:1000D0006104000861040008312C00086104000874
:1000E000610400086104000861040008610400085C
:1000F000610400086104000861040008D1170008C9
:10010000610400086104000861040008610400083B
:10011000610400086104000861040008610400082B
:10012000011800083118000861180008911800082B
:10013000C118000861040008610400086104000897
:10014000610400086104000861040008D12500086A
:10015000F11800082119000851190008610400086D
:1001600061040008610400086104000861040008DB
:1001700061040008610400086104000861040008CB
:0801800061040008610400089D
:10019000F8B54EF64F442F4E0023C4F6C4641A251A
:1001A00098B25A1CA4FB007E91B24FEADE0EA4FB6B
:1001B00001C705FB1E00FF086130F05405FB171155
:1001C00002336131B3F5807FB154E9D1224C234D24
:1001D000234F00F075FE00F02BFA2068214900F053
:1001E0007FFF26682B78326D906B40F4002191637D
:1001F0000126642023B300F05BFC402320681A4AE8
:100200003E70022100F0A4FF202383F31188022115
:10021000206800F0BDFF002383F3118801212068CE
:100220000C4A4FF4807300F0A3FF202383F311885E
:100230000121206800F0C4FF002383F311882B7094
:100240004FF47A7000F034FC2B786420002BD2D16C
:10025000F6E700BFA80C002000080020A50C002035
:10026000A40C002060340008A80D0020AFF300802B
:10027000704700BFAFF30080AFF30080AFF30080A2
:10028000FEE700BFAFF30080AFF30080AFF3008064
:1002900072B6644C84F30988022383F31488BFF395
:1002A0006F8F61486149884218D2CA1C051D531BD3
:1002B00023F00302034610184FF0553183421960B2
:1002C000C2F380020AD01AB185422B46296005D0BC
:1002D0001D1D5960083383426960F9D15448A0421A
:1002E00018D25449041D0A1B22F00305034628189E
:1002F0004FF0553183421960C5F380020AD01AB11C
:1003000084422346216005D01D1D59600833834275
:100310006960F9D102F03CFD4749484881421BD24F
:10032000C61C0C1D321B464822F00302161D056830
:100330000423B3420D60C2F380020DD022B14568A0
:100340000823B342256007D01A1D1D5884585D50FC
:100350000833B3428C50F7D13A483B49884217D210
:10036000CB1C041D1A1B22F003050346281800218C
:1003700083421960C5F380020AD01AB18442234631
:10038000216005D01D1D5960083383426960F9D191
:10039000FFF76EFF2D4D2E498D421DD2CC1C2E1D18
:1003A000A71BB808471C01242A6800EA04089047E4
:1003B000BC4211D0B8F1000F05D002243368984731
:1003C000BC42354608D0696888470234A8682E1DAB
:1003D00080470835BC42F6D1FFF7DAFE1D4D1E4AB4
:1003E00095421DD2D41C2E1DA71BBB085F1C0124E7
:1003F000296803EA04088847BC4211D0B8F1000F0D
:1004000005D0022430688047BC42354608D06A686F
:1004100090470234AB682E1D98470835BC42F6D190
:10042000FFF72EFF0008002000000020000400203D
:100430000004002003080020000800200408002019
:10044000E834000808080020F80D002088010008A2
:10045000880100088801000888010008AFF30080C7
:10046000FEE700BFAFF30080AFF30080AFF3008082
:1004700000F096FA00DF00BFAFF30080AFF300801A
:10048000EFF30983203383F30988002383F3118872
:10049000704700BFAFF30080AFF30080AFF3008080
:1004A00008B54FF46D43CEF200034FF44072C0F232
:1004B000FA520021996007201021DA6000F090F8CC
:1004C0000A204FF4007100F08BF80B208021BDE86A
:1004D000084000F085B800BFAFF30080AFF30080A4
:1004E000202383F311884FF46D43CEF20003586844
:1004F00010F4006319D0EFF30983A3F1200282F313
:10050000098810494FF080708A6943F8040CD07F45
:1005100009689268896858B1914294BF002201220B
:1005200062B1094A43F8082C704783F31188704779
:10053000914234BF00220122002AF2D1034843F83D
:10054000080C70472009002071040008740400089A
:1005500008B5202383F3118800F0A2F8002383F369
:100560001188BDE80840FFF7BBBF00BFAFF30080B4
:100570002DE9F04FC1F80CD0D0F80CD0BDE8F08FC9
:10058000002383F311882846A04700F0C1FA704782
:10059000F0B44FF461438408CEF20003C03400F09D
:1005A000030553F82470ED00FF26420906FA05F60C
:1005B00027EA060601FA05F500F01F0002F16007C0
:1005C000012101FA00F02E4343F8246043F827008C
:1005D00043F82200F0BC7047AFF30080AFF3008017
:1005E00082084FF46D43CEF20003063200F00300A0
:1005F00030B4C00053F82250FF2404FA00F425EA76
:10060000040401FA00F10C4343F8224030BC704767
:10061000024B034A98698261FEE700BF200900206F
:10062000B0300008AFF30080AFF30080AFF300807C
:1006300000B583B0FFF734FF00F0DAF800F060F89F
:1006400000F0F6FB00F02CFC40F608004021C2F25E
:10065000000000F0B5F940F62011C2F200010122BD
:1006600088610277002383F3118862B643F2C000E9
:100670008969C0F600008861009340F6500040F29E
:100680001163C021C0F60003C2F2000000F0F8F9C7
:1006900003B000BDAFF30080AFF30080AFF3008084
:1006A00038B5134B9869C27F0AB1511EC177036AEE
:1006B000104C5A1C0262E0682268411CA242E160B0
:1006C00014D09568013D956085B91368D1685C6068
:1006D0002360D560002383F31188106988472023A5
:1006E00083F31188226890680028EED038BD00BFDF
:1006F0002009002010090020AFF30080AFF3008034
:1007000040F61013C2F200034FF0FF3200205B608E
:100710001B609A60D8607047AFF30080AFF3008031
:1007200070B40C4E03613468C260A568A94204D954
:100730002468491BA5688D42FAD363680460B442FB
:10074000436018606060816002D0A068411AA160B7
:1007500070BC704710090020AFF30080AFF3008039
:100760000368074A934203D09968826889189960A0
:1007700042681360036800215A60C160704700BF7F
:1007800010090020AFF30080AFF30080AFF30080CA
:10079000202383F31188037F0D2B11D8DFE803F0AA
:1007A00020101007100B101010101010100B416AC1
:1007B0008A68531C8B6090E80C001A6001684B60DB
:1007C0004FF0FF3242628168074B002202771B68BC
:1007D0009A688A42FBD25968036041600860586099
:1007E000002383F31188704720090020AFF30080B5
:1007F00040F62013C2F2000300225B601B609A6087
:100800005B611B61704700BFAFF30080AFF30080F6
:1008100000228168054B02771B689A688A42FBD2E6
:1008200059680360416008605860704720090020E3
:1008300040F62013C2F2000310B499691A680877D1
:1008400014201468C87701201077104663601C607C
:100850009A6110BCFFF78CBEAFF30080AFF300804D
:1008600030B54B1C87B0054611D00B4C0B4AA36921
:1008700001A8FFF755FF2846FFF7DAFF049B13B1E5
:1008800001A8FFF76DFFA069406A07B030BDFFF710
:10089000CFFF014CF7E700BF2009002091070008B7
:1008A000F0B4144F8568BE690446B06861620023E5
:1008B00085420CD82377394609688A689542FBD966
:1008C00048682160606004604C60F0BC704733771A
:1008D000394609688A689042FBD94868316070607F
:1008E00006604E600123204631462377BC61F0BC90
:1008F000FFF73EBE20090020AFF30080AFF3008079
:100900000E4B18689969026830B453601A608C689D
:1009100098610125142300220577CB770A770346D7
:1009200000E01B689A68A242FBD25A680B604A60DA
:100930001160596030BCFFF71BBE00BF20090020CA
:100940000D4B18689969026830B453608C681A605E
:1009500001259861002305770B77034600E01B68AB
:100960009A68A242FBD85A680B604A6011605960CD
:1009700030BCFFF7FDBD00BF20090020AFF30080B1
:10098000044B1A68986991688368994200D8704747
:10099000FFF7D6BF20090020AFF30080AFF300803F
:1009A000034B9869C17F09B1FFF7CABFFFF7A8BF22
:1009B00020090020AFF30080AFF30080AFF3008088
:1009C000F0B440F62014C2F200040022656901640C
:1009D000046100F12C06816000F1280745614FF0A9
:1009E000020C60610121142480F81CC04277C47796
:1009F000C2638263026281778261286187620663D3
:100A0000C662F0BC704700BFAFF30080AFF3008058
:100A10002DE9F00340F62015C2F20005A1F1240CE7
:100A200000EB0C076969C76040F80C30069B7B60DF
:100A300040F28153C0F600033B6202230377142384
:100A40000026904600F1280900F12C02C37701230B
:100A50000561C0F808804161044668614677C0F8C6
:100A60004080C66386630662837786610861C0F84A
:100A700028900263C262BDE8F0037047AFF30080C4
:100A800010B51C4682B0202383F311882346049CB2
:100A90000094FFF7BDFF00210446FFF701FF00238C
:100AA00083F31188204602B010BD00BFAFF3008071
:100AB00008B50146202383F311880620FFF7D0FEF6
:100AC000002383F3118808BDAFF30080AFF30080EB
:100AD00038B50E4B9C692546606255F8280FA84230
:100AE00006D00168A162FFF793FEA06AA842F8D180
:100AF000607F830704D1636922691A6121694B61B0
:100B00000E20BDE83840FFF793BE00BF200900204B
:100B1000202383F31188FFF7DBBF00BFAFF3008012
:100B20000023406000608360704700BFAFF3008027
:100B300008B5826B037F1143082B81630BD0092B0F
:100B400000D008BD426A11408A42FAD1FFF760FE28
:100B50000021416208BD436A1942F7D108BD00BFB8
:100B600070B50468A04205460E4608D0201D0BC88B
:100B70003343E360FFF7DCFF2468A542F6D170BD84
:100B800010B4024659B1084B9B69586244680D2065
:100B900083E814005360236010BCFFF761BE4FF080
:100BA000FF3010BC704700BF20090020AFF3008069
:100BB00010B4C361019B40608A1800240060846007
:100BC00041618161C1600261036210BC704700BF76
:100BD000426908B503468069824298681AD001309C
:100BE000986002F8011B19695A618A420BD2186891
:100BF00098420DD0016819604B60FFF709FE002391
:100C00004362184608BD1868DA6898425A61F1D103
:100C1000002008BD0028E2D06FF0030008BD00BF2F
:100C200070B5202304460E4683F31188C36903B1CF
:100C30009847A568204631463DB9FFF7A1FF002837
:100C4000F7DA2B4683F3118870BDA1692269013D53
:100C5000A56011F8010B9142A16124BFE168A16177
:100C6000002383F3118870BDAFF30080AFF30080E1
:100C70002DE9F0471E460446C769202383F31188F7
:100C80004FF0000801F1010901EB020A0FB1204603
:100C9000B847A568204631464DB9FFF771FF0028D7
:100CA000F7D02B4683F311884046BDE8F087A3694F
:100CB000013DA56013F8012B09F8012C2069A361FF
:100CC000834224BFE368A361002383F31188D145E5
:100CD00008F10108E8D0202383F3118809F1010904
:100CE000D4E700BFAFF30080AFF30080AFF3008024
:100CF00010B4C361019B40608C1800608260416148
:100D00008161C1600461036210BC7047AFF3008071
:100D1000F8B504460F461646202383F31188A568CC
:100D2000204631463DB9FFF72BFF0028F7DA2B4666
:100D300083F31188F8BD6369013DA56003F8017B69
:100D400022696361934228BFE368E16928BF636158
:100D500009B120468847002383F311881846F8BD5F
:100D6000826941699142034610B5806816D0441CDF
:100D70009C6012F8014B19699A618A420BD218687B
:100D8000984206D0016819604B60FFF741FD0023CF
:100D90004362204610BDDA689A61F0E70028E6D089
:100DA0006FF0020010BD00BFAFF30080AFF3008012
:100DB0002DE9F0479A46044688461646D0F81C901E
:100DC000202383F311880027A56820466B1EEDB110
:100DD000A360656918F8011B05F8011B22696561AC
:100DE000954224BFE2686261B9F1000F00D0C847A4
:100DF000002383F311880137013E10D0202383F3B1
:100E00001188A56820466B1E002DE1D12046514671
:100E1000FFF7B6FE0028D7D02B4683F3118838465B
:100E2000BDE8F087AFF30080AFF30080AFF3008040
:100E300040F6401240F63C134CF200010648C2F264
:100E40000002C2F20003C2F2010120F0070021F00B
:100E50000701106019607047FF0D0020AFF300809C
:100E6000202383F31188094B09491A680968073060
:100E700020F00700891A88429ABF101818600022D3
:100E8000002383F311881046704700BF40090020FB
:100E90003C090020AFF30080AFF30080AFF3008087
:100EA00040F64813C2F2000340F661610022C0F62A
:100EB000000103F1100019609A60DA60FFF730BE9C
:100EC00008B500F0FDFD43F24020C0F6000000F040
:100ED0008FFF00F025F800F03BF800F089F800F0F3
:100EE000D7F800F0E5F8BDE8084001F059BF00BFB1
:100EF0004FF48053CEF2000319465A68801882429C
:100F00004B6802D29A4202D970479A42F7D9984266
:100F100094BF00230123002BF1D17047AFF3008071
:100F200000F09EBEAFF30080AFF30080AFF300800F
:100F300000230122027043608360C3600361436148
:100F40001830FFF7EDBD00BFAFF30080AFF30080B6
:100F500000F03EBFAFF30080AFF30080AFF300803E
:100F60000123002103704160704700BFAFF3008090
:100F70000C30FFF77DBE00BFAFF30080AFF3008001
:100F80000C304FF0FF33FFF773BE00BFAFF30080AC
:100F90003030FFF70DBF00BFAFF30080AFF300802C
:100FA00030304FF0FF33FFF703BF00BFAFF30080D7
:100FB0000C30FFF735BE00BFAFF30080AFF3008009
:100FC0000C304FF0FF31FFF72BBE00BFAFF30080B6
:100FD0003030FFF79DBE00BFAFF30080AFF300805D
:100FE00030304FF0FF32FFF793BE00BFAFF3008009
:100FF00001F0B6BEAFF30080AFF30080AFF3008026
:1010000070B543F2E0030546C0F60003044645F818
:10101000043B82B0656001250B46164604F154017D
:101020001022257200F10C000094FFF7C1FD00941E
:1010300004F1300004F1640110223346FFF758FE3A
:1010400002B070BDAFF30080AFF30080AFF300805B
:1010500038B5436904460D463BB104F10C002946FE
:10106000FFF7B6FD00280BDB38BD04300421FFF785
:1010700077FD04F10C002946FFF7AAFD0028F3DAFA
:10108000201D8021BDE83840FFF76ABDAFF3008026
:1010900001F096BDAFF30080AFF30080AFF30080A6
:1010A000002301220270436083600C30FFF738BDDB
:1010B00001F00EBBAFF30080AFF30080AFF3008010
:1010C0000023012202704360C36183620362C36232
:1010D0004362036303814381704700BFAFF3008025
:1010E00038B50446202383F3118800254160C5608C
:1010F00005614561856101F003FB022323702B46E6
:1011000083F3118838BD00BFAFF30080AFF30080D8
:1011100070B50646506914460D4618B100211022DC
:1011200001F02EFFA06918B10021102201F028FF64
:1011300006EB850330462946DC60BDE8704001F0CF
:10114000F7BB00BFAFF30080AFF30080AFF30080C8
:1011500030B400EB81040025E468A4692570E260E6
:101160006360A56030BC01F0B3BC00BFAFF300808A
:1011700030B400EB81040025E46864692570E26006
:101180006360A56030BC01F0BBBC00BFAFF3008062
:1011900070B5448944FA01F313F001060D4601D0FD
:1011A000012070BD012303FA01F52C43448101F0B5
:1011B000C7FC304670BD00BFAFF30080AFF30080C6
:1011C00070B5048944FA01F313F001060D4601D00D
:1011D000012070BD012303FA01F52C43048101F0C5
:1011E000B7FC304670BD00BFAFF30080AFF30080A6
:1011F00010B40346002202240470A0F84C2083F8A7
:101200004E2080F84F2002814281C260026142611B
:10121000826183F8342010BC01F0E2BAAFF30080A1
:10122000F8B50446002380F8343000F1440201F0A0
:101230003FFC6068816841B32046884728B3E56B6E
:1012400094F8443094F84B1094F84A2042EA012074
:10125000A8423CBF0546E06313F0800F2B467DD1CA
:10126000002D68D1052184F83410204629462A46ED
:10127000FFF77EFF202383F3118820462946FFF7DE
:101280009FFF2B4683F31188F8BD94F8443013F088
:10129000600711D00021204601F07AFC2046002191
:1012A00001F06EFC63681A6812B120460521904770
:1012B000062084F83400F8BD94F8456003F07F02FE
:1012C00042EA0626B6F5407F00F0F98016DDB6F555
:1012D000C06F00F0898068DDB6F5106F00F0B48053
:1012E00040F60242964278D0B6F5006FD2D1012581
:1012F00004F14F00A063E5632764A3E7022E00F02A
:10130000B58065DDB6F5807F00F08780B6F5817F1A
:10131000C0D194F846100029BCD194F8485015F07B
:101320000F0150D02A06204600F1FA8001F038FC67
:1013300094F8443047E0042284F834202046002109
:10134000A26BFFF705FF202383F3118800212046BD
:10135000FFF71EFF002383F31188F8BD95B101212B
:1013600084F8341020460021A26BFFF701FF2023F0
:1013700083F3118800212046FFF722FF002383F327
:101380001188F8BD032084F83400294620462A46F7
:10139000FFF7DEFE202383F3118820462946FFF75E
:1013A000F7FE2B4683F31188F8BD40F202308642E7
:1013B00073D0B6F5A06F7FF46DAFB4F84410B1F5FB
:1013C000A06F00F09B800025A563E563256439E7E5
:1013D000002E32D0012E7FF45DAF56490225002247
:1013E000A163E56322642DE7606894F8496094F88E
:1013F0004830456894F8471094F84620204643EA60
:101400000623A84700283FF445AF4168056894F8D3
:101410004430A163E563276414E794F84620012A69
:101420007FF438AFB4F84C00A76320F00201A4F8B1
:101430004C10E76327643D4604E7022504F14C00A5
:10144000A063E5632664FDE694F8465084F84F50A7
:10145000002D44D10321217062681568002DB2D09F
:1014600020460221A84794F84430ACE794F848306D
:1014700013F0800F204603F00F0133D101F0F8FA8A
:10148000012833D002287FF405AF2B4DE063A5631C
:10149000276494F844300546D4E694F846100029B1
:1014A0007FF4F8AE94F8485015F00F018BD02B065E
:1014B00020463AD401F064FB94F8443083E794F872
:1014C0004620012A7FF4E6AEB4F84C50A76345F0FD
:1014D0000200A4F84C00E76327643D46B2E604200E
:1014E0002070B9E701F0D4FA0128CBD1134AE663A2
:1014F000A263276494F844303546A3E694F8463056
:10150000204684F84E3001F003FA65682A6812B16B
:10151000204601219047032094F84430207052E780
:1015200001F046FB94F844304DE701F031FB94F8AC
:10153000443048E70031000810310008203100082D
:1015400038B590F83430022B044624D0052B36D021
:10155000012B10D0002101F01BFB2046002101F0DF
:101560000FFB6068026812B12046052190470621F2
:1015700084F8341038BD90F84B1090F84A30C26BA4
:1015800043EA0121914206D9C5682B8AB2FBF3F1E7
:1015900003FB1125D5B1002103200B4684F834004C
:1015A0000A462046FFF7D4FD202383F3118800214B
:1015B0002046FFF7EDFD002383F3118838BD026C50
:1015C00002B19047002384F8343038BD2B462946B9
:1015D0002A46FFF7CDFD202383F3118820462946B4
:1015E000FFF7EEFD2B4683F31188022084F83400C8
:1015F00038BD00BFAFF30080AFF30080AFF30080D1
:1016000090F83430032B10B5044626D0042B11D0AB
:101610000021204601F0BCFA2046002101F0B0FA7A
:1016200063681A6812B1204605219047062184F8A4
:10163000341010BD002105220B4680F834200A46E4
:10164000FFF796FD202383F3118800212046FFF742
:10165000B7FD002383F3118810BDC1688B699A68B8
:10166000002AD5D1016C01B18847002084F83400EC
:1016700010BD00BFAFF30080AFF30080AFF3008078
:101680004FF4C043C4F2020307481968026810B55A
:101690003D2401F03D019C600AB140689047BDE8DF
:1016A0001040FEF71DBF00BF68090020AFF30080A7
:1016B0004FF4C043C4F2020308481968826810B5A9
:1016C0008C0904F03D014FF474649C600AB1C06859
:1016D0009047BDE81040FEF703BF00BF6809002037
:1016E0004FF4C043C4F2020308481968026910B5F8
:1016F0000C0C04F03D014FF474149C600AB1406975
:101700009047BDE81040FEF7EBBE00BF680900201F
:101710004FF4C043C4F2020308481968826910B547
:101720008C0D04F03D014FF074649C600AB1C069F7
:101730009047BDE81040FEF7D3BE00BF6809002007
:101740004FF4C043C4F2020307485968026A10B557
:101750003D2401F03D01DC600AB1406A9047BDE8DC
:101760001040FEF7BDBE00BF68090020AFF3008047
:101770004FF4C043C4F2020308485968826A10B5A6
:101780008C0904F03D014FF47464DC600AB1C06A56
:101790009047BDE81040FEF7A3BE00BF68090020D7
:1017A0004FF4C043C4F2020308485968026B10B5F5
:1017B0000C0C04F03D014FF47414DC600AB1406B72
:1017C0009047BDE81040FEF78BBE00BF68090020BF
:1017D0004FF4C043C4F2020308485968826B10B545
:1017E0008C0D04F03D014FF07464DC600AB1C06BF5
:1017F0009047BDE81040FEF773BE00BF68090020A7
:101800004FF4C843C4F2020307481968026C10B5CC
:101810003D2401F03D019C600AB1406C9047BDE859
:101820001040FEF75DBE00BF68090020AFF30080E6
:101830004FF4C843C4F2020308481968826C10B51B
:101840008C0904F03D014FF474649C600AB1C06CD3
:101850009047BDE81040FEF743BE00BF6809002076
:101860004FF4C843C4F2020308481968026D10B56A
:101870000C0C04F03D014FF474149C600AB1406DEF
:101880009047BDE81040FEF72BBE00BF680900205E
:101890004FF4C843C4F2020308481968826D10B5BA
:1018A0008C0D04F03D014FF074649C600AB1C06D72
:1018B0009047BDE81040FEF713BE00BF6809002046
:1018C0004FF4C843C4F2020307485968026E10B5CA
:1018D0003D2401F03D01DC600AB1406E9047BDE857
:1018E0001040FEF7FDBD00BF68090020AFF3008087
:1018F0004FF4C843C4F2020308485968826E10B519
:101900008C0904F03D014FF47464DC600AB1C06ED0
:101910009047BDE81040FEF7E3BD00BF6809002016
:101920004FF4C843C4F2020308485968026F10B567
:101930000C0C04F03D014FF47414DC600AB1406FEC
:101940009047BDE81040FEF7CBBD00BF68090020FE
:101950004FF4C843C4F2020308485968826F10B5B7
:101960008C0D04F03D014FF07464DC600AB1C06F6F
:101970009047BDE81040FEF7B3BD00BF68090020E6
:101980002DE9F00F40F6E8158AB0C2F2000546F2E4
:1019900040400295783046F21045C4F20205A0F5A9
:1019A00080600495C4F2020046F240450390C4F200
:1019B000020546F228400695C4F2020046F2704540
:1019C0000590C4F2020546F258400195C4F20200A7
:1019D00046F2B8450790C4F2020546F288400995E0
:1019E000C4F20200029D089046F2100B002040F65F
:1019F000681346F2280A46F2400946F2580846F2B1
:101A0000700C46F2880746F2A006C2F20003286076
:101A1000C4F2020B039DCBF80000C4F2020AC4F228
:101A20000209C4F20208C4F2020CC4F20207C4F2B2
:101A300002061860CAF800009860C9F80000186132
:101A4000C8F800009861CCF800001862386098620D
:101A5000306018632860049D98632860059D1864B1
:101A60002860069D98642860079D186546F210441A
:101A700028606034019D986530342860C4F2020407
:101A8000089D18664FF4C0414FF4C8422860C4F264
:101A900002019866C4F202022060099C18674FF0A8
:101AA000FF35206098678D60CD609560D5600AB085
:101AB000BDE8F00F704700BFAFF30080AFF30080C8
:101AC0004FF46053C4F2020300224FF0FF30196953
:101AD00070B418611A61596958615A6199699861BD
:101AE0009A611E6A4EF2100166F080561E62CEF2B6
:101AF00000011A6249F23F054EF6F0545E6A5862E0
:101B0000CEF200040720C0F202055A624D608A60DE
:101B10000860E0684FF48051CEF2000140F0807020
:101B2000E060086840F001000860186C4FF4E04184
:101B3000C4F2000140F080501864086840F48070DE
:101B40000860196F01F44070B0F5007F03D04FF4C6
:101B5000803119671A674FF46053C4F202031A6F99
:101B6000120407D4186F40F4007119671A6F42F419
:101B70000040186770BCFFF703BF00BFAFF30080E1
:101B80004FF46052C4F202024FF4E043C4F2000387
:101B90004FF0805111644FF4804218461A60436838
:101BA0005904FCD54FF46050C4F2020001460268AB
:101BB00042F00103036008684FF460538207C4F2E7
:101BC0000203F8D5196841F480321A601946086892
:101BD0004FF460538003C4F20203F8D55A6F42F009
:101BE000010159671846426F4FF460539207C4F2DF
:101BF0000203F8D545F20841C0F2407159601868F7
:101C000040F080721A60194608684FF460538001F2
:101C1000C4F20203F8D598684FF414424FF470519F
:101C2000C3F60802C4F20201104340F20572986044
:101C30000A60996841F002009860996801F00C0010
:101C40004FF460520828C4F20202F6D1536C43F4F8
:101C500080415164506E40F480435366704700BF2A
:101C600010B540F6EC14C2F200042046FFF760F90C
:101C70004FF40052C4F20102A26242F61643054A32
:101C8000C0F2020312206021E2622363BDE810402B
:101C9000FEF77EBCC0310008AFF30080AFF30080D8
:101CA000C16A0A68136810B423F01F041460136833
:101CB00013F00103FBD10C7A826A49683D2000FAD7
:101CC00004F00860536093600123936010BC704778
:101CD0004FF40053C4F2010300211A6810B51960D3
:101CE000910625D5164CE06A03685A6802B321694B
:101CF000F1B12046FFF7D4FF206983683BB105228C
:101D000001212270204698472178052914D000220D
:101D10002261202383F31188606930B14FF0FF33D3
:101D2000074943624A61FEF773FD002383F311887C
:101D3000BDE81040FEF7D4BB02202070E7E700BFEB
:101D4000EC090020AFF30080AFF30080AFF3008018
:101D500038B51C4D2B691A8A9C89A4B21440E14302
:101D600004F0020089B282B21982002A24D104F060
:101D7000040082B2DAB904F0080082B292B904F029
:101D8000100082B24AB9E30703D56A680D48936828
:101D90009847BDE83840FEF7A3BB6B680948996ACD
:101DA0008847F0E76B680748196A8847E7E76B6878
:101DB000044899698847DEE76B68284619698847AF
:101DC000D5E700BF200A0020AFF30080AFF300800A
:101DD00010B540F62024C2F200042046FFF7C0F8F8
:101DE0004FF40063C4F20003236110BDAFF3008021
:101DF0004FF46053C4F202031A6B6FEA52216FEA88
:101E000041221A63196D6FEA51226FEA4221196566
:101E100000234168C4F202034FF480625960816874
:101E20009960C168D9600169596141691962816924
:101E3000596201681960016AC4F202024FF400633A
:101E40005160416A9160816AD160C16A5161016BE0
:101E50001162416B5162C1691160C4F20203C26B2D
:101E60005A60016C9960426CDA60816C5961C26C95
:101E70001A62016D5962816B4FF440621960816D85
:101E8000C4F202024FF480535160C16D9160016E43
:101E9000D160416E5161816E1162C16E5162416DBE
:101EA0001160C4F20203426F5A60816F9960C26F81
:101EB000DA60D0F880105961D0F884201A62D0F826
:101EC00088105962016F4FF4A0521960D0F8901039
:101ED000C4F202024FF4C0535160D0F894109160E4
:101EE000D0F89810D160D0F89C105161D0F8A010B3
:101EF0001162D0F8A4105162D0F88C101160D0F8A3
:101F0000AC10C4F202034FF4E0525960D0F8B010A4
:101F10009960D0F8B410D960D0F8B8105961D0F8F1
:101F2000BC101962D0F8C0105962D0F8A810C4F2E1
:101F300002021960D0F8C8305360D0F8CC1091601C
:101F4000D0F8D030D360D0F8D4105161D0F8D83068
:101F50001362D0F8DC105162D0F8C4104FF4005373
:101F60001160D0F8E420C4F202035A60D0F8E810FF
:101F70009960D0F8EC20DA60D0F8F0105961D0F810
:101F8000F4201A62D0F8F8105962D0F8E000186016
:101F9000704700BFAFF30080AFF30080AFF3008065
:101FA000416D036D00222DE9F00110468F684FF05E
:101FB000804C4FF0FF3617E0585055015C1902F184
:101FC00058014901C4F81009C4F8086953F80180A0
:101FD000B8F1000F17DB58505D190132BA42C5F84D
:101FE000100BC5F8086B15D802F1480461015D5863
:101FF000002DE1DA550143F801C05C19D4F8081945
:102000008907FBD5DAE743F801C0D4F8081BC906F5
:10201000FBD5E1E74FF00110C3F81C08BDE8F00163
:10202000704700BFAFF30080AFF30080AFF30080D4
:10203000F8B5046D04EB41134FF0FF32D3F8086B91
:10204000C3F8082B330705460F4603D5D4F81438D8
:102050001A0715D4F30703D5D4F81408C00700D421
:10206000F8BD05EB87036989D868012202FA07F2F7
:1020700021EA02036B81C268394628469047F8BDC1
:1020800000EB8102D3685A689047E3E7AFF3008022
:10209000026D890141F02003136110698106FCD4AF
:1020A0000C20FEF725BF00BFAFF30080AFF3008028
:1020B0002DE9F04F40F62011C2F20001D0F850A0F7
:1020C0008A698346914887B02023906183F3118801
:1020D0004FF000089BF80030012B06D0DBF85C4085
:1020E0009CB9DAF81450E8060FD440F62017C2F273
:1020F0000007DAF81860B96946F01002CAF818202B
:102100000220CBF86410FEF793FB002383F31188C1
:102110001C46DAF8140010F010073AD0DBF8500033
:10212000016A01F4F015B5F5802F47D0B5F5402FC1
:10213000EFD101F00F070BEB8702C1F30A16D3684A
:10214000F11C8D081F6AE4D000F580506A1E0368F8
:10215000114647F8043B02F001060123002AD8D0BB
:102160002EB105680023511E47F8045BD1D00268E8
:1021700013B147F8042B013B0139066813B147F846
:10218000046B013B0139F2D1DAF8140010F01007AA
:10219000C4D10125DBF85C30A5401D42049540F018
:1021A000B78001340594DBF85420059B9068DCB2BD
:1021B0008442AED9202383F311888BE701F00F0707
:1021C00002370BEB8705C1F30A166A6891690B7831
:1021D000002B3BD10D1D2CCD0332D31AF21C9B08D2
:1021E000920829D000F5805002F1FF3909F0010C66
:1021F000AE46D0F800901BB1AE46013B4EF8049BB2
:10220000013A19D0BCF1000F07D0D0F800C013B1CB
:102210004EF804CB013B013A0ED08946016813B158
:102220004EF8041B013B013A016813B14EF8041B40
:10223000013B013AF2D14946AD19CD600BEB87075E
:1022400078688569A9688E19AE6062E700F58050EC
:10225000CD68002E40D03346A446032B696907D9C8
:102260002C69A14204D3EC68032B6C616969F7D82F
:10227000026801F8012B2C696961A14224BFE96859
:102280006961012B27D0D5F814E0110A0EF8011B63
:102290002C69C5F814E0A64524BFEC686C61022BDC
:1022A00019D0D5F81490110C09F8011B2C69C5F848
:1022B0001490A14524BFEC686C61032B0BD06969B5
:1022C000120E01F8012B2C696961A14224BFEC6850
:1022D0006C61043BC1D16446202383F31188A96853
:1022E00028688A19A842AA6009D003682B605D603B
:1022F000FEF78EFAC0F824802868A842F5D1FEF7D0
:102300003FFB002383F3118898E700BF00320008E9
:10231000202383F31188DAF80860DBF85C10049856
:1023200026F0010221EA0005CAF808203B46CBF856
:102330005C5083F31188A71C0BEB87035D68686909
:1023400082684668964240F2FA80DBF850102D8A87
:1023500067010297CF19B61AD7F81829B54228BFD6
:10236000354697B20134B5EB870F059447D826035D
:10237000019603930378002B57D1019FEA1C5FEA73
:10238000920E01EB0704C7681ED03A460EF1FF36E5
:1023900052F804CB334606F00109019E043241F89D
:1023A00006C08BB1B9F1000F05D052F8041C0432FD
:1023B000013B216008D052F8046C266052F8041BDF
:1023C0000432023B2160F6D17C19C4600398446852
:1023D000606986684268AB199A42836040F2B180B6
:1023E000029DDBF85010248A4F19D51AD7F81869C6
:1023F000A54228BF2546B2B2B5EB820FBAD900205C
:10240000202383F31188DAF8081041F00104CAF898
:10241000084030B9DAF83458049F47EA0506CAF88C
:102420003468002383F31188BDE6019AC4688918D3
:10243000002D35D020692A46AE4697084BD0A569B5
:10244000431B48BF03339B109F4238BF3B464FEAB4
:10245000830CCCEB0202DBB12E465F1E56F8049BC8
:102460003B46C1F8009007F0010704367BB12FB15D
:1024700056F8047C0436013B0F6008D056F8047C03
:102480000F6056F8047B0436023B0F60F6D16544BA
:10249000A842A5611DD8E668A661002ACDD175467F
:1024A000202383F31188A16820684F19A042A760F8
:1024B00009D0036823605C60FEF7AAF9C0F82480A5
:1024C0002068A042F5D1FEF75BFA002383F3118860
:1024D0007CE7002AE3D0A66916F8013BB042A6616A
:1024E0009CBFE668A661012A27D0A76917F8015B9F
:1024F000B842A7619CBFE768A761022A43EA0523A7
:102500001BD0A76917F8016BB842A7619CBFE768A9
:10251000A761032A43EA06430FD0A56915F8017B9A
:102520008542A56124BFE568A561043A43EA0763D3
:1025300003D00B60002A80D1B1E70022F9E7631CC9
:10254000059301205CE700BFAFF30080AFF300808C
:10255000F8B5046D04EB41134FF0FF32D3F808696E
:10256000C3F80829F30705460F4603D5D4F81038F9
:10257000DA071FD4330606D50121D4F8340801FA4E
:1025800007F7074200D1F8BD202383F31188EB6DD4
:10259000D4F83428686E3B4322EA0707EB65C4F899
:1025A000347818B1FEF734F900206866002383F30D
:1025B0001188F8BD00EB8102B0F808E0D368012271
:1025C00002FA01F22EEA020202819B689847D1E7E3
:1025D00070B53E4E356D6B69AC691C40E1046C61B1
:1025E0002BD4A20448BFD5F80838230704D5706857
:1025F000C16809B135488847E00629D46103D5F898
:10260000185807D5EA0749D4AB074DD4680751D409
:10261000290755D4220307D5EB0332D4A80336D4B7
:10262000690327D42A0303D4BDE87040FDF758BFDF
:1026300026480321FFF7FCFCF6E73046FEF7D8FDFD
:1026400073681B68002BCCD0304600219847C8E740
:10265000202383F31188AA69706E22F01003AB6106
:1026600020B1FEF7D5F8194900204866002383F30E
:102670001188C3E702211548FFF7DAFC2A03D3D5F6
:10268000D6E712480021FFF7D3FCA803C8D50121E3
:102690000E48FFF7CDFC6903C4D5EBE700210B48DA
:1026A000FFF756FFAB07B1D508480121FFF750FFF0
:1026B0006807ADD502210548FFF74AFF2907A9D5CC
:1026C00002480321FFF744FFA4E700BF380A0020B7
:1026D00010B540F63824C2F200042046FEF7F0FCA4
:1026E00043F2F01100234FF0A040C0F60001236632
:1026F00063662065616510BDAFF30080AFF30080B5
:1027000070B50378056D012B82B0064601D002B08A
:1027100070BD3048864249D0316E0024F4650029EE
:1027200038D04FF4A250346DC4F200000323E860A7
:10273000C0F2202300224FF450210120C5F80038B8
:10274000C5F8002EA96320612369D807FCD40C20AA
:10275000FEF7CEFB2269002AFCDA00243046AC608A
:10276000FFF71EFC7168C5F81048C868C5F8144822
:10277000C5F81C4850B143F20803AB614FF0FF317C
:102780006961A86840F00103AB60C0E74FF44052B4
:10279000AA61F3E7009606F168004FF498710222EF
:1027A0000D4BFEF735F970663066BAE74FF46051AD
:1027B000C4F202014A6B42F080044C634B69002270
:1027C00043F0800048614A614320E021FDF7E0FECC
:1027D000A2E700BF380A0020B1200008AFF3008054
:1027E0002DE9F84F80460021046DFFF751FCD8F821
:1027F00054B0DBF808A04FF00061FF22C4F80019C4
:102800000AF00106C4F8001B0123C4F80829C4F823
:10281000082BBAF1000F33D066B102235345C4F838
:10282000201904F51267C4F8201BC4F82829C4F83D
:10283000282B25D85F1C03F1480903F1580003F148
:10284000490C03F1590E04EB431604EB4715400104
:102850004FEA49194FEA4C1C4FEA4E1E02335345CA
:1028600044F809102150C6F80829C6F8082B44F886
:102870000C1044F80E10C5F80829C5F8082BD9D952
:10288000DBF80030D8F850204FF0FF314FF0011640
:102890001025C4F81818C4F81C68C8F858306362CA
:1028A0001561106910F01005FBD10C20FEF720FB1C
:1028B000D4F80038D8F8581023F4FE62C4F8002881
:1028C000A66946F44020092240F01006A66148F2AD
:1028D0004003C4F81028C4F814280B4AC1F20003BE
:1028E00001F1100041F48011C8F80C20C4F8105B0D
:1028F000C4F8003BC4F81059C4F80039C8F85800AF
:10290000A162BDE8F88F00BF10320008AFF300806D
:10291000036D90F84E10D3F8002822F4FE6040EAD0
:102920000111C3F800187047AFF30080AFF30080C7
:102930002DE9F0418F1C00EB870306465B68046DB0
:102940001A6802F0030002280D464FF4004854D0E4
:10295000032855D04146C1F20001C1F20408012804
:1029600018BF88466A01A0180021C0F8101BD8685B
:10297000002848D0588A05F15801490148EA00006A
:1029800060504FF0010CD4F81C0805F110010CFA4E
:1029900001F10143C4F81C18A21899680020C2F87C
:1029A0001009002942D09A8B198A8B08012A88BF06
:1029B0005343B26D05F13F0004EB80019818B065F8
:1029C00042EA0343304606EB87064B602946FFF791
:1029D0005FFB7268108A05F148014B0140EA85519E
:1029E00041EA0802E2500123D4F81C0803FA05F575
:1029F0000543C4F81C58BDE8F081C1F20808B1E7EE
:102A0000C1F20C08AEE705F15801490105F1100EBD
:102A1000605820F4004060500121D4F81C0801FAED
:102A20000EF120EA0100C4F81C08B5E705F13F03E8
:102A300004EB83024FF48061C0F200215160304604
:102A40002946FFF725FB05F148004301E25822F42F
:102A50000041E1500123D4F81C0803FA05F520EAEF
:102A60000505C4F81C58BDE8F08100BFAFF3008035
:102A70005831036D49015A5812F4004004D012F441
:102A8000001F0CBF02200120704700BFAFF3008081
:102A90004831036D49015A5812F4004004D012F431
:102AA000001F0CBF02200120704700BFAFF3008061
:102AB00000EB8101CB68186A0168436811605360BC
:102AC000704700BFAFF30080AFF30080AFF300802A
:102AD00000EB810310B4DC68006DA269638A54685E
:102AE000621ED41800EB411143F0C042B4FBF3F373
:102AF00042EAC340C1F8100B10BC7047AFF300802E
:102B000000EB810310B4DA6853695B686BB1128A19
:102B1000006D5C1EA418B4FBF2F200EB411143EA15
:102B2000C243C1F8103910BC7047006D00EB411270
:102B30004FF40021C2F81019F5E700BFAFF3008091
:102B40005831036D49015A5842F08060585070471F
:102B500001F14802036D5201985840F0044098502A
:102B60000120D3F8342800FA01F11143C3F83418D6
:102B7000704700BFAFF30080AFF30080AFF3008079
:102B80005831036D49015A5842F4001058507047AB
:102B90004831036D49015A5842F4001058507047AB
:102BA0005831036D49015A5822F4001058507047AB
:102BB0004831036D49015A5822F4001058507047AB
:102BC00038B540F6E83340F6EC34C2F20004C2F205
:102BD00000034FF6FF7220461A80FEF761FA09499A
:102BE0004FF4605016224623C4F2000001F10C0598
:102BF000C0F20102C0F20103E06121626562A262DB
:102C0000E36238BD54310008AFF30080AFF30080B9
:102C10004FF48843C4F200039A8990B240F08001D7
:102C200099817047AFF30080AFF30080AFF300806D
:102C3000F8B5474B5D6FAE892C88A988A4B22207EE
:102C4000B6B28FB24BD104F4807188B2002834D16F
:102C500004F0200293B2002B24D106F0800188B248
:102C600020B104F0800293B2002B59D104F040044B
:102C7000A4B29CB1202383F3118836481021FDF7BC
:102C80006FFF002383F311884FF6BF733340AB818E
:102C9000298821F040000204130C2B80BDE8F84085
:102CA000FDF71EBC202383F311882948F9B2FEF7F3
:102CB000CFF9002383F31188CFE7202383F3118812
:102CC00024484FF40071FDF74BFF002383F3118874
:102CD0002A8822F480731904080C2880B8E704F0CD
:102CE000080082B2002A14BF80210021E30704F00B
:102CF000020398B248BF41F0200108B141F0400101
:102D000004F0040293B20BB141F48071202383F3E9
:102D100011881048FDF724FF002383F3118892E700
:102D2000202383F311880C48FEF71AF8002805DBEE
:102D300081B2A980002383F3118897E70548082111
:102D4000FDF70EFF26F0C00040F04002AA81F1E737
:102D50001C0C0020200C00204C0C0020AFF3008045
:102D600010B540F61C44C2F2000442F6114220465F
:102D70000021C0F60002FEF743F94FF48843C4F285
:102D80000003636710BD00BFAFF30080AFF30080A6
:102D9000FEF7F6BEAFF30080AFF30080AFF3008024
:102DA000704700BFAFF30080AFF30080AFF3008047
:102DB00000207047AFF30080AFF30080AFF30080D6
:102DC000022915D003290DD0012909D04FF4406301
:102DD000C4F2020300205A6982F48051596170479D
:102DE00005487047032A05D8044800EBC200704725
:102DF0000348704703487047E034000890340008E7
:102E0000A0330008B0340008AFF30080AFF30080B7
:102E100010B50446052904D8DFE801F01F0B0C0BA0
:102E20000B0B4FF44060C4F20200426982F480430D
:102E3000436110BD202383F3118801210D4AFEF761
:102E400067F9204602210C4AFEF762F9002383F35A
:102E500011880A4B01221A7010BD4FF44060084AD5
:102E6000C4F2020000211170436983F400514161F2
:102E700010BD00BF40330008B0330008A50C00208F
:102E8000A40C0020AFF30080AFF30080AFF300800C
:102E900010B500EB8101234BCA680446187891698C
:102EA00088B18A6882B94023204602211E4AFEF773
:102EB0004FF9202383F3118802212046FEF768F999
:102EC000002383F3118810BD174B1878313803287D
:102ED000E9D8DFE800F01D140B024FF44061C4F2A2
:102EE00002014A6982F400434B61DCE74FF4406021
:102EF000C4F20200416981F480424261D3E74FF499
:102F00004063C4F20203586980F480515961CAE7F2
:102F10004FF44063C4F202035A6982F400505861CE
:102F2000C1E700BFA40C0020A80D0020AFF3008073
:102F30004FF44063C4F2020310B55A690B4C82F49B
:102F400000515961237804467BB10121084A4FF4AE
:102F50008073FEF70DF9202383F3118801212046A9
:102F6000FEF72EF9002383F3118810BDA40C002076
:102F7000A80C0020AFF30080AFF30080AFF3008017
:102F8000F0B48407034600F08E80541E002A00F03F
:102F90008880E507CEB211D41A46671E02F8016B8D
:102FA0001346154692070FD0002C7AD003F8016B18
:102FB0009A073C461D4607D0013CEDE7034603F85F
:102FC000016B9A071D46F7D1032C52D9CEB246EABF
:102FD00006270F2C47EA07432DD9A4F11002174604
:102FE0000F2FC2F300162B606B60AB60EB6005F136
:102FF000100216D93EB1103F136053609360D36046
:1030000010320F2F0DD9203F02F1100613605360CC
:103010009360D360136153619361D36120320F2FAA
:10302000F1D8A4F1100222F00F0204F00F041032C4
:10303000032C15441DD9271F3E462A46032E42F86D
:10304000043BC7F380070DD927B1043E032E42F895
:10305000043B07D91746083E47F8043B53603A1D26
:10306000032EF7D8231F23F00302131D04F00304DB
:10307000ED18B4B12B46C9B203F8011B2C19ED436E
:103080006219A34202F001050BD01DB103F8011B28
:10309000A34206D01A4602F8011B5970531CA342E2
:1030A000F8D1F0BC7047054614468DE700000000DB
:1030B00069646C6500000000000000000000000072
:1030C0006D61696E00164211040448080C10141852
:1030D000001C1D1E1F20000000000000000000005A
:1030E000A10F0008810F0008E10F0008C10F0008C0
:1030F000D10F0008B10F0008910F0008710F0008F0
:1031000000000000000000000000000000000000BF
:1031100000000000000000000000000000000000AF
:10312000010000000000000000000000000000009E
:10313000106002400860024000000B00286002405E
:103140000860024006010C00406002400860024036
:1031500010020D00586002400860024016030E0085
:10316000706002400C60024000040F008860024062
:103170000C60024006051000A06002400C60024096
:1031800010061100B86002400C60024016072F00C4
:1031900010640240086402400008380028640240BD
:1031A0000864024006093900406402400864024095
:1031B000100A3A005864024008640240160B3B00B3
:1031C000706402400C640240000C3C0088640240C1
:1031D0000C640240060D4400A06402400C640240EE
:1031E000100E4500B86402400C640240160F460001
:1031F00080000000800100000300000000000000CB
:103200007573625F6C6C645F70756D7000000000B8
:1032100000000000211200084115000801160008F6
:1032200040004000D00B0020D00B00200100000027
:10323000E00B002000000000000000000000000083
:1032400000AAA02A00000000FFABFFFF54000140CD
:10325000FFFF00000000565500AA0A008020080069
:1032600040020000FFFFFFFF15455155FFFF000022
:103270000000000440000000018020020000000067
:10328000FFFFFFFF54154554FFFF000000000060E2
:10329000000606000001005500000000FFFFFFFFD0
:1032A00055505500FF0F0000000000000000000016
:1032B0004000000000000000FFFFFFFF00000000D2
:1032C000FFFF000000000000000000000000000000
:1032D00000000000FFFFFFFF00000000FFFF0000F4
:1032E00000000000000000000000000000000000DE
:1032F000FFFFFFFF00000000FFFF000000000000D4
:10330000000000000000000000000000FFFFFFFFC1
:1033100000000000FFFF00000000000000000000AF
:103320000000000000000000FFFFFFFF00000000A1
:10333000FFFF00000000000000000000000000008F
:103340000200000000000000312F00080000000013
:1033500040000000940C0020000000000400000069
:10336000000000000000000000000000000000005D
:103370002603530054004D006900630072006F0083
:1033800065006C0065006300740072006F006E00E1
:1033900069006300730000000000000000000000EE
:1033A00020000000C0340008000000000000000001
:1033B000020000000000000000000000912E000844
:1033C0000000400000000000E80D002001000000A7
:1033D00000000000000000000000000000000000ED
:1033E0000C0332002E0035002E00320000000000D9
:1033F000220353007400720069006E006700200011
:103400006E006F007400200066006F0075006E0093
:103410006400000000000000000000000000000048
:103420003003430068006900620069004F005300E8
:103430002F0043007500730074006F006D002000C2
:10344000480061007200640077006100720065004E
:103450000403090400000000000000000000000058
:10346000112E0008C12D0008B12D00080000000039
:1034700012011001FF0000408304FFFF000201025F
:103480000301000000000000000000000000000038
:1034900004000000503400082600000070330008CB
:1034A00030000000203400080C000000E033000869
:1034B00022000000F03300080000000000000000BF
:1034C00009022000010100C0320904000002FF00CF
:1034D00000000705810240000007050202400000CD
:0834E000120000007034000826
:0434E800380A00207E
:04000005080002915C
:00000001FF
